:100000000C94E7010C941F020C941F020C941F0225
:100010000C941F020C941F020C941F020C941F02DC
:100020000C941F020C941F020C94C1180C947D18A0
:100030000C94BE190C941F020C941F020C941F0206
:100040000C941F020C941F020C941F020C941F02AC
:100050000C941F020C949A190C941F020C941F020A
:100060000C941F020C941F020C941F020C941F028C
:100070000C941F020C941F020C941F020C941F027C
:100080000C941F020C941F020C941F020C941F026C
:100090000C941F020C941F020C941F020C941F025C
:1000A0000C941F020C941F020C941F0205010902FC
:1000B000A10185020901A1000509190129081500FE
:1000C0002501950875018102050109300931158165
:1000D000257F95027508810609381581257F9501D0
:1000E00075088106050C0A38021581257F95017572
:1000F000088106C0C005010980A101850319012AF4
:10010000B700150126B700950175108100C0050CD8
:100110000901A101850419012AA002150126A002E6
:10012000950175108100C005010906A1018506052C
:100130000719E029E71500250195087501810205D9
:1001400007190029EF1500250195F07501810205B9
:10015000081901290595057501910295017503910D
:1001600001C00660FF0961A1010962150026FF00B8
:100170009520750881020963150026FF00952075FA
:10018000089102C005010906A101050719E029E748
:1001900015002501950875018102950175088101F9
:1001A0000507190029FF150026FF0095067508812F
:1001B000000508190129059505750191029501753C
:1001C000039101C0000000000000000000000000DA
:1001D000000000000000000000000000000000001F
:1001E00000000000000000007E0F00D4FFFFFFC7EA
:1001F0000000007800000000000000002A2B28000A
:1002000000000000000000000000000000000029C5
:10021000000000002C1E3420212224342627252E05
:10022000362D3738271E1F2021222324252633333D
:10023000362E37381F0405060708090A0B0C0D0E69
:100240000F101112131415161718191A1B1C1D2F35
:100250003130232D350405060708090A0B0C0D0E55
:100260000F101112131415161718191A1B1C1D2F15
:100270003130354C290000003A003B003C003D0085
:100280003E003F0040004100420043004400450062
:100290000000000035001E001F0020002100220089
:1002A000230024002500260027002D002E002A0010
:1002B0002A004A002B0014001A000800150017003D
:1002C0001C0018000C00120013002F003000310039
:1002D00000004B00390004001600070009000A0066
:1002E0000B000D000E000F003300340064002800E6
:1002F00000004E00E10032001D001B000600190046
:10030000050011001000360037003800E5005200EB
:1003100000004D00E0000000E300E2002C000000BF
:100320002C0000002C000000E700E4005000510009
:1003300000004F00AA00A90009025B00030100A011
:10034000FA09040000010301010009211101000163
:10035000224000070581030800010904010002038F
:10036000000000092111010001222200070582037B
:100370002000010705030320000109040200010316
:1003800000000009211101000122B60007058403C5
:100390002000011201000200000008278C493400EF
:1003A000010102000110035000610072006100674A
:1003B000006F006E000000100341007200740065C1
:1003C000006D00690073000000040309040011249B
:1003D0001FBECFEFDAE0DEBFCDBF04B603FE18C00C
:1003E0008091A5029091A602A091A702B091A802C7
:1003F0008730904BA740B04B59F41092A502109251
:10040000A6021092A7021092A802E0E0F8E3099574
:1004100011E0A0E0B1E0ECE2F0E402C005900D9242
:10042000A837B107D9F722E0A8E7B1E001C01D92D3
:10043000A53AB207E1F70E94E5190C94C01F0C948D
:100440000000482F2091A1029091680257E02913E3
:1004500002C080E0089530E0529FF001539FF00DFC
:100460001124E759FD4F8181681306C0808148132C
:1004700003C085818111EECF2F5F3F4F2770E7CFFB
:10048000E8EDF0E080818E7F80831092E200109290
:10049000DA001092E100A0EEB0E08C9181608C93C4
:1004A00080818F77808319BCA7EDB0E08C918E7F1F
:1004B0008C9380818F7E80831092390208952091E1
:1004C000E4003091E50095E6A9012091EC00822F2F
:1004D000817020FF06C08091E80080FF06C080E0A8
:1004E00008952091E80022FD1AC080915E028823C1
:1004F00089F0853089F08091EB0085FD0FC0209157
:10050000E4003091E50042175307F9F29150E1F60B
:1005100084E0089582E0089583E0089581E00895DD
:100520008091600287FF13C08091E80082FF06C0BF
:100530008091E8008B778093E80004C080915E0290
:100540008111F2CF089580915E028823D9F38091C2
:10055000E80080FFF8CF8091E8008E77ECCF982FED
:100560009093E900242F762F50E0891731F0709195
:10057000EC002091ED005091F00021FD07C09F5F3D
:10058000973071F78093E90081E008953091EB0096
:100590003E7F3093EB003091ED003D7F3093ED00D6
:1005A0003091EB0031603093EB007093EC002093BE
:1005B000ED005093F0002091EE0027FDE0CF80E0A9
:1005C0000895B0E0A0E0E7EEF2E00C94201FC8ED43
:1005D000D0E088818F7E8883E7EDF0E080818160C4
:1005E000808384E082BF81E08093390288818E7F9E
:1005F000888302EE10E0F80110821092DA0081EE9A
:10060000C82ED12CF601108288818F77888388814B
:100610008068888388818F7D888319BC10925E02F0
:1006200010925F0210925D0210925C0290EEE92E31
:10063000F12CF70180818B7F8083888181608883A2
:1006400042E060E080E00E94AF02F60180818E7F90
:100650008083F801808181608083808188608083CD
:10066000F70180818E7F8083888180618883CDB708
:10067000DEB7E8E00C943C1FFC018091660290918B
:10068000670286179707A0F06115710529F490910C
:10069000E8009E779093E80090E06115710551F4B1
:1006A000911108C08091E80082FF34C080E0089575
:1006B000BC01F2CF80915E028823C1F18530C1F187
:1006C0008091E80083FD30C08091E80082FDEACF90
:1006D0008091E80080FFE1CF8091F3002091F2004B
:1006E000382F6115710519F02830310558F091E067
:1006F0002830310509F090E02091E8002E77209312
:10070000E800CBCF81918093F100615071092F5F98
:100710003F4FE7CF80915E02882341F0853041F062
:100720008091E80083FFBECF81E0089582E00895C4
:1007300083E0089580913B0208959C014FB7F8949F
:100740008091330290913402A0913502B09136022B
:100750004FBF821B930B08952FB7F894609133021B
:100760007091340280913502909136022FBF089526
:100770002FB7F8948091330290913402A091350202
:10078000B09136022FBF0895209108012223C9F0AD
:100790002091370227FF15C0E62FE695E695E695EE
:1007A000EE31D8F4E80FF92FF11D677021E030E049
:1007B00001C0220F6A95EAF72095828128232283BF
:1007C0000895FC01329608962191621303C0DF015F
:1007D00011971C92E817F907B9F7089520910801BD
:1007E0002223C1F02091370227FF14C0E62FE6959F
:1007F000E695E695EE31F8F4E80FF92FF11D6770F4
:1008000021E030E001C0220F6A95EAF78281822B55
:1008100082830895FC0132962FEF30E041916417F6
:1008200051F02F3F19F4411101C0232F3F5F3630A3
:10083000A9F72F3F09F40895820F911D27FD9A957E
:10084000FC0162830895A3E0B0E0E9E2F4E00C94D7
:10085000261F209130023091310228173907A1F06C
:100860009093310280933002E0912E02F0912F029A
:10087000309751F024E029839B838A830680F78197
:10088000E02DCE01019609952396E2E00C94421FDB
:10089000A3E0B0E0EEE4F4E00C94261F20912C02DB
:1008A00030912D0228173907A1F090932D028093E3
:1008B0002C02E0912E02F0912F02309751F023E0AC
:1008C00029839B838A830680F781E02DCE010196E0
:1008D00009952396E2E00C94421FE0912E02F091DC
:1008E0002F02309729F00190F081E02D09950895AD
:1008F00080E008950E94B8039C01909128028091A5
:100900002902982B21F03093250220932402909104
:100910002A0280912B02982B21F0309323022093FE
:100920002202E0912E02F0912F02309749F082E0EE
:10093000809326020480F581E02D86E292E00995FD
:1009400008958091210280FD16C081FD16C082FDB0
:1009500016C0809120028823A1F0883280F428E01C
:10096000829FC001112468E270E00E94F51E862F6C
:10097000672B39F0089582E0089584E0089588E0B7
:10098000089581E008958091210280FD14C081FDC9
:1009900014C082FD16C080911F02882381F08E3121
:1009A00080F420E5829FC00111246EE170E00E9476
:1009B000F51E862F089584E1089588E2089588E061
:1009C000089580E5089580E00895F894E82FE29571
:1009D000EF70F0E031A1282F2F7081E090E001C08E
:1009E000880F2A95EAF7982F9095932391A392A1C7
:1009F000892B82A3789408959091370292FF06C0C4
:100A0000282F28712830F9F4877F846093FF06C06F
:100A1000282F28712831F1F4877E846120913802D3
:100A200020FF06C0382F38713830D9F4877F8160B5
:100A300021FF06C0282F28712831D1F4877E8161DB
:100A400094FD877E0895282F24712430F9F68B7F3A
:100A50008860DCCF282F2471243101F78B7E8861D8
:100A6000DDCF382F3171313019F78E7F8860E0CFBC
:100A7000282F2171213121F78E7E8861E1CF8238C4
:100A80009105B9F1B0F48133910509F47DC048F4C2
:100A90008932910509F46DC08A32910509F47BC051
:100AA00008958533910509F45FC08933910509F1F3
:100AB0000895833E9105D9F138F4803E910529F1DE
:100AC000823E910579F10895863E9105D9F1873EE0
:100AD000910509F43EC0843E910541F5209138020C
:100AE00021FF24C08091370284FD19C087EE90E079
:100AF000089520913702237009F05AC020913802DE
:100B000023FF14C089E290E008952091370220FD70
:100B100038C03091380230FF09C024FF43C090E054
:100B200080E008952091370222FDF7CF08952091AB
:100B3000370222FD3AC03091380230FD39C024FF1F
:100B4000F5CFEDCF2091370223FFF0CF24FDE7CF83
:100B5000CDCF2091370223FD2EC03091380231FFD6
:100B6000EECF84EE90E008952091370225FFDECF8E
:100B7000C9CF2091370225FD21C02091380223FFE3
:100B8000D5CF89E390E0D2CF2091370226FFCECF98
:100B90008AE290E008952091370226FFC7CF81E3D3
:100BA00090E0089583EE90E0089582EE90E008953D
:100BB00080EE90E0089586EE90E0089585E390E061
:100BC00008951F93CF93DF930E943F05EC01C11559
:100BD00080E5D807F0F5C11580E4D80708F09CC07F
:100BE000C03ED10520F5CD3CD10508F082C0C83A01
:100BF000D10578F4C53AD10508F073C0C130D105EC
:100C000019F1209709F1C430D105F0F4D0E0C0E02B
:100C10001BC0C33CD105D0F7C85AD0E0CC0FDD1FB4
:100C2000C45FDE4F0990D881C02DD4640DC0C115BA
:100C300080E2D80708F0D1C0C11581E0D80708F0DC
:100C40005AC0C83ED10510F7CE01DF91CF911F9158
:100C50000895C03682E5D80718F5C03482E5D80774
:100C600008F06BC0C03282E5D80708F05FC0C1153C
:100C700082E5D80708F497C02C2F2695269580E2A8
:100C8000289F900111248C2F8370C1E0D0E002C016
:100C9000CC0FDD1F8A95E2F7C22BD32BDD68D4CFB2
:100CA000C03A82E5D80760F4C03882E5D80708F476
:100CB00059C0CF71D0E0DC2FCC27C46FD06AC4CF2D
:100CC000C03C82E5D80708F462C0C03E82E5D80780
:100CD00008F09CCFDC2FCC27CC27DF71C06FD06A07
:100CE000B3CFC55AD0E0C75FDE4FC881D0E0D06433
:100CF000ABCFD065A9CF8D2F0E94FC04182FCE0159
:100D000099270E943F05C12FD0E0DC2FCC27CC27AC
:100D1000DF71C82BD92B98CFCE0199270E943F05B0
:100D2000CC27DF70C82BD92BD06A8ECFCF71D0E003
:100D3000DC2FCC27C16FD06A87CF2C2F2695269524
:100D4000277080E2289F900111248C2F8370C1E0CE
:100D5000D0E002C0CC0FDD1F8A95E2F7C22BD32B67
:100D6000DC6872CF2C2F26952695277080E2289F6D
:100D7000900111248C2F8370C1E0D0E002C0CC0F11
:100D8000DD1F8A95E2F7C22BD32BDA685DCF8C2F5B
:100D90008F710E94FC04C82FD0E0DC2FCC27CC2719
:100DA000DF71D06251CF8C2F8F710E94FC0455E00F
:100DB000D695C7955A95E1F7CF70D0E0DC2FCC27B8
:100DC000282F30E084FF05C044E0220F331F4A95EE
:100DD000E1F7C22BD32BD06937CF8D2F8F710E94B3
:100DE000FC04182FCE0199270E943F05C12FD0E0A7
:100DF000DC2FCC27CC27DF71C82BD92BD2CF809505
:100E00009091ED0198239093ED0108958091A102B6
:100E100090916802981301C008958F5F8770FACF90
:100E2000A82FA77023E0969587952A95E1F7FC01F6
:100E3000EE0FFF1FE80FF91FE60FF71F50E040E02D
:100E400080E0219130E00A2E02C0369527950A9461
:100E5000E2F721703327042E01C0220F0A94EAF72B
:100E6000822B4F5F5F4F4330510559F708959630FD
:100E700070F4803198F440E1949F900111246FE95F
:100E800071E0820F932F911D0E94100708959C5FBF
:100E9000923020F46CE971E090E0F6CF80E00895A4
:100EA000262F277091E001C0990F2A95EAF723E0D9
:100EB000769567952A95E1F7FB01EE0FFF1FE60F88
:100EC000F71FE40FF51F50E040E0682F70E08191BC
:100ED000DF0111979B01042E02C0369527950A94D5
:100EE000E2F7217021952827292328272C934F5F8B
:100EF0005F4F4330510559F70895282F862F9630BC
:100F000068F4203150F430E1939FB0011124620F56
:100F1000711D4FE951E00E94500708959C5F923087
:100F2000E0F7622F70E04CE951E0F5CF80930002CA
:100F300008959091000221E030E0F90101C0EE0F28
:100F40008A95EAF7D90102C0AA0FBB1F6A95E2F79A
:100F5000EA2B01C0220F4A95EAF7892F8E23E81366
:100F600005C0292B822F0E949607089520952923DA
:100F7000F9CF21E030E001C0220F8A95EAF72095F1
:100F80008091000282230E94960708959091CA01E1
:100F9000809589238093CA01282F277069F48917C7
:100FA00059F09091380292FF07C0869586958695F4
:100FB0000E94B9071092CA01089521E030E001C0F3
:100FC000220F8A95EAF780910002822B0E949607F1
:100FD00008958093FF010895662309F45DC08D3C58
:100FE00041F40E94C3048195809329020E947A04EF
:100FF00008958E3C19F40E94C304F6CF8F3C31F45F
:101000000E94C304819580932802F0CF803D19F49B
:101010000E94C304F8CF893D29F40E94A104809363
:101020002A02E4CF8A3D21F40E94A1048195F7CFE2
:101030008B3D31F40E94A104819580932B02D6CF81
:101040008C3D19F40E94A104F8CF9FE2980F9830CC
:1010500070F4815D990B21E030E001C0220F8A9588
:10106000EAF780912702822B80932702BFCF8D3D24
:1010700031F480912102816080932102B7CF8E3DAF
:1010800021F4809121028260F7CF8F3D09F0AECF2D
:10109000809121028460F0CF409128028D3C59F468
:1010A0008091290287FF0DC01092290241110BC0C7
:1010B00010921F0208C08E3C81F4809129021816FC
:1010C0009CF3442381F080912A0290912B02892B7A
:1010D00009F08CCF1092200289CF8F3C49F447FF52
:1010E000F0CF10922802809129028111ECCFE0CF3D
:1010F000803D19F41416ACF3E4CF90912A02893D97
:1011000029F41916F4F610922A02DBCF8A3D19F45D
:1011100097FFD7CFF8CF90912B028B3D29F497FF03
:10112000D0CF10922B02CDCF8C3D19F41916CCF3F1
:10113000C8CF9FE2980F983090F4815D990B21E021
:1011400030E0B90102C0660F771F8A95E2F7CB0144
:10115000809590912702892380932702B2CF8D3DFD
:1011600031F4809121028E7F80932102AACF8E3D9F
:1011700021F4809121028D7FF7CF8F3D09F0A1CF1F
:10118000809121028B7FF0CF0F931F93CF93DF933A
:101190008B01EA0190915E02943061F58093E90041
:1011A0008FEF9091E800815095FD06C095ED9A95DE
:1011B000F1F700008111F5CF8091E80085FF1AC09A
:1011C0000E945F02811111C08091E80085FD06C078
:1011D0008091E8008E778093E800F2CFF80181914A
:1011E0008F018093F100219779F78091E8008E7745
:1011F0008093E800DF91CF911F910F91089543E014
:1012000050E0BC0184E00E94C408089546E050E02C
:10121000BC0184E00E94C4080895CF93DF93EC01E1
:1012200080910801811111C048E050E0BE0181E0C9
:101230000E94C40880E2FE01ACE3B2E001900D928E
:101240008A95E1F7DF91CF9108958091370287FF6A
:1012500005C040E284E050E0BE01EACF48E081E012
:10126000FACF81E08093E00080E28093D800109272
:10127000C9008FE19EE40197F1F700C0000087E00C
:1012800090EBDC018093A5029093A602A093A702A5
:10129000B093A80288E19CE00FB6F894A8958093DB
:1012A00060000FBE90936000FFCFCF93DF93C9E340
:1012B000D3E060E0CE010E947F1F2196C11584E03B
:1012C000D807B9F7DF91CF9108950F931F93CF936C
:1012D000DF93142F022F8430F0F461111CC094E0CE
:1012E000899FE0011124C75DDC4F82E090E0442338
:1012F00011F090E080E0632F8C0F9D1F0E947F1FF4
:1013000083E090E0112311F081E090E0602F8C0FDA
:101310009D1F0E947F1FDF91CF911F910F91089514
:101320001F93CF93DF93122F8430E0F46630D0F414
:101330004031C0F490E2699FE001112450E0440F75
:10134000551FC40FD51F90EC899FC00DD11D1124CE
:10135000632FCE0189960E947F1F612FCE018A964E
:101360000E947F1FDF91CF911F910895B0E0A0E010
:10137000ECEBF9E00C941C1FD0E0C0E094E3C92E24
:1013800093E0D92E26E3A22E23E0B22E84E7E82EA6
:1013900082E0F82E10E016C02097B9F4F4012591F0
:1013A0003491402F612F80E00E94900982E0880EE6
:1013B000911C0F5F003181F71F5F80E2E80EF11C86
:1013C000163019F1470100E0E7CF21E030E0402F6F
:1013D000612F8C2FE9CFF6012591349141E060E037
:1013E00080E00E946509F5012591349140E060E0BC
:1013F00080E00E9465092196C430D10509F0C6CF6E
:10140000CDB7DEB7ECE00C94381F209721F321E034
:1014100030E041E060E08C2F0E94650921E030E07F
:1014200040E060E08C2FE5CFCF93C82F6FEF8111A4
:1014300063E285E290E00E947F1F6FEFC11166E0DA
:1014400086E290E00E947F1F6FEFC11166E287E2A3
:1014500090E00E947F1FCF91089580E00E94140ABF
:1014600060E088E290E00E947F1F0E94B6090E941F
:10147000550981E00E94140A0895FF920F931F936B
:10148000CF93DF93F42E843040F5611126C024E021
:10149000829F80011124075D1C4F82E090E044236D
:1014A00011F090E080E0800F911F0E94611FC82F13
:1014B000D0E0DC2FCC2783E090E0FF2011F081E02A
:1014C00090E0800F911F0E94611F9E01282BC9018F
:1014D000CDB7DEB7E5E00C943F1F90E080E0F8CF99
:1014E0000F931F93CF93DF93843030F5663020F550
:1014F000403110F520E2629F8001112450E0440F3A
:10150000551F040F151F30EC839F000D111D112472
:10151000C80189960E94611FC82FD0E0DC2FCC271C
:10152000C8018A960E94611F9E01282BC901DF9184
:10153000CF911F910F91089590E080E0F8CF462F52
:10154000672F763038F4403160F4843050F40E94D4
:10155000700A08957D3F41F4411103C041E0843099
:1015600048F090E080E008957C3FD9F74111F9CF31
:101570008430B8F760E00E943D0A0895CF92DF9270
:10158000FF920F931F93CF93DF936C0100910002A2
:101590008091FF01082BC3E0D0E010E0FC2EC801D1
:1015A0000C2E02C0959587950A94E2F780FD0CC039
:1015B0002197A0F7F12C8F2DDF91CF911F910F91E3
:1015C000FF90DF90CF900895B6018C2F0E949F0A64
:1015D0000E94E105019761F3EECFCF93DF93EC0119
:1015E0000E94BE0ABE010E949F0A0E94E105DF918F
:1015F000CF910895FC0124812223C1F08081918143
:101600000E94ED0A92959F70963091F058F4925F87
:101610009F70923058F4803F19F030F4883E30F4D7
:1016200081E008959A5FF4CF843FD1F380E008957C
:10163000883EB0F3813FD1F7F3CFA6E0B0E0E3E21C
:10164000FBE00C94251F49835A8349815A819923D1
:10165000A1F0222391F0CA010E94BE0A182F682F20
:1016600089819A810E947D0769817A81812F0E94F8
:101670009F0A2696E3E00C94411FCA010E94370797
:10168000182FF2CF85E290E00E94611F833289F427
:1016900086E290E00E94611F863059F487E290E074
:1016A0000E94611F91E0863209F090E0892F8170DD
:1016B000089580E0FCCF8091ED019091EC01892BA1
:1016C00080937A019091EB019923A1F0892B80936B
:1016D0007A01809108018823E1F18091370287FF28
:1016E00038C08EE1ECE7F1E090E08150A0F5911177
:1016F0001092EB0140E250E06BEC71E08AE791E080
:101700000E94B31F892B21F180E2EAE7F1E0ABEC04
:10171000B1E001900D928A95E1F7E0912E02F091EF
:101720002F023097A9F080910801882359F0809109
:10173000370287FF07C080917A0180937B0186E0A2
:1017400080937A010280F381E02D8AE791E0099588
:10175000089586E0C7CF2191222339F29F5FC5CF3C
:10176000882321F00E94FF060E945B0B08958823C6
:1017700039F09091ED01982B9093ED010E945B0B55
:101780000895882399F19CEF980F913A40F4682FBF
:101790008AE791E00E94C4030E945B0B089590E2E7
:1017A000980F983050F4877091E001C0990F8A9596
:1017B000EAF7892F0E94FF06EFCF9BE5980F933041
:1017C00028F490E080E00E944804089598E5980F7E
:1017D0009B3128F490E080E00E942304089593E375
:1017E000980F933118F460E00E94EC070895CF93AE
:1017F000C82F8823D9F18CEF8C0F813AC8F58091DE
:101800000801882311F18091370287FF1EC0EC2F59
:10181000E695E695E695F0E0E658FE4F828190E089
:101820004C2F477021E030E002C0220F331F4A9551
:10183000E2F782239323892B91F06C2F8AE791E0C2
:101840000E94C4030E945B0B0AC0ECE7F1E082E84F
:1018500091E02191C21789F38E179F07D1F76C2F62
:101860008AE791E00E94EE030E945B0BCF910895FE
:1018700080E28C0F883068F4C77021E030E001C04E
:10188000220FCA95EAF78091ED01822B8093ED013A
:10189000EBCFEBE5EC0FE33040F4F0E0E75FFE4F19
:1018A000808190E00E944804E1CFE8E5EC0FEB3145
:1018B00050F4F0E0EE0FFF1FE45FFE4F8081918156
:1018C0000E942304D3CF83E38C0F833178F661E049
:1018D0008C2F0E94EC07CACF1F93CF93DF93182F52
:1018E000D0E0C0E0893311F4C0E5D0E0812F0E9440
:1018F000F70B209739F4812F0E94C10BDF91CF9114
:101900001F9108958FE99FE00197F1F700C0000053
:101910002197EFCF0F931F93CF93DF93C62FD42F31
:10192000022FFC0185818823A9F06093A4020E9404
:10193000B8039093A3028093A202C77081E001C014
:10194000880FCA95EAF70E94B70BDF91CF911F91DC
:101950000F9108958091A402681332C08091A20271
:101960009091A3020E949D03883C910548F510E2E6
:101970001D0FCD17B9F080E28C0F883040F4C7708E
:1019800081E001C0880FCA95EAF70E94B00B1830B9
:1019900048F481E09D2F977001C0880F9A95EAF76F
:1019A0000E94B70B802F0E946C0C183070F6D77015
:1019B00081E001C0880FDA95EAF70E94B00BC5CF2D
:1019C000C77081E001C0880FCA95EAF7F6CF909101
:1019D000380292FB222720F9281779F080FB92F930
:1019E00090933802609137027091380284E090E061
:1019F0000E949D1F82E00E94C60708951092ED018B
:101A000080910801ECE7F1E0882329F18091370209
:101A100087FF21C08EE1DF011D928A95E9F790E0F2
:101A200080E00E94480490E080E00E94230410922D
:101A3000EC010E945B0B86E0E6E2F2E0DF011D9222
:101A40008A95E9F710921F0210922002109221024B
:101A50000E947A04089586E0DECFAAE2B0E0E3E3D4
:101A6000FDE00C94251F80E692E02091F100DC015E
:101A70002D93CD01B2E088369B07B9F780916102C2
:101A8000833009F472C0B8F4813009F449C082305F
:101A900009F4B3C08091E80083FF8BC2809160029B
:101AA000909161029A3008F084C2E92FF0E0EE5381
:101AB000F04E0C94091F8A3009F48EC08B3009F463
:101AC00071C0893039F780916002813219F78091B5
:101AD000640290916502009711F00297D9F6809107
:101AE000E800877F8093E8008091E80082FF38C09B
:101AF0009091F3008091F200029731F48091F1000F
:101B0000813011F0863021F48091F10080933B0206
:101B10008091E8008B778093E8000E949002BACF12
:101B200080916002813A09F0B5CF8091E800877F0B
:101B30008093E8008091640290916502892B61F4A2
:101B400060E28CE392E070E00E943C038091E80048
:101B50008B778093E8009ECF60E090E080E0F3CF49
:101B600080915E028111C0CF95CF80916002813A51
:101B700009F090CF8091640290916502892B09F061
:101B800089CF8091E800877F8093E8008091E8000A
:101B900080FFFCCF809108018093F1008091E800E4
:101BA0008E77B9CF80916002813209F073CF809136
:101BB000640290916502892B09F06CCF8091E80056
:101BC000877F8093E8000E94900280916202809358
:101BD00008010E94FE0C5ECF80916002813209F004
:101BE00059CF8091E800877F8093E8000E9490029F
:101BF0008091630280933A024DCF80916002813AD6
:101C000009F048CF8091E800877F8093E8008091B9
:101C1000E80080FFFCCF80913A02BECF803899F077
:101C2000823809F0C6C1809164028F70873008F055
:101C3000C0C18093E9008091EB0085FB882780F983
:101C40001092E90006C080915C0290915D029111B2
:101C500082609091E800977F9093E8008093F10074
:101C60001092F1008091E8008E779FC1882309F4DB
:101C70008DC1823009F09DC180916202811190C1B5
:101C8000809164028F702FEF280F263008F091C1E9
:101C90008093E9002091EB0020FF82C1933031F462
:101CA0008091EB0080628093EB007AC19091EB0011
:101CB00090619093EB0021E030E001C0220F8A9503
:101CC000EAF72093EA001092EA008091EB00886026
:101CD000EACF81116EC1109162021F778091E300FB
:101CE0008078812B8093E3008091E800877F809348
:101CF000E8000E9490028091E80080FFFCCF809174
:101D0000E30080688093E30082E0111183E0809318
:101D10005E024FC18058823008F04BC120916202B0
:101D2000309163022C3DE3E03E07A1F583E08A8316
:101D30008AE289834FB7F894DE01139620E03EE0F3
:101D400051E2E32FF0E050935700E49120FF03C0ED
:101D5000E295EF703F5FEF708E2F90E0EA30C0F0B9
:101D6000C7968D939D932F5F243159F74FBF809174
:101D7000E800877F8093E8006AE270E0CE01019678
:101D80000E943C038091E8008B778093E80011C1AA
:101D9000C096E7CF8091640290916502432F55274A
:101DA0004330510509F44AC078F54130510509F432
:101DB0007AC08BE590E0E8E3F3E04230510509F0AA
:101DC000F8C02091E800277F2093E8002091660268
:101DD000309167028217930708F49C0140E02115B7
:101DE000310509F065C0411163C08091E80082FDB2
:101DF000C9CF80915E02882329F2853019F2809143
:101E0000E80083FFF2CFBECF4132510509F43CC058
:101E10004232510509F0CDC08330910508F0C9C0A8
:101E2000FC01EE0FFF1FE559FE4F0190F081E02D00
:101E300088599E4FDC018C9190E01AC033272130E5
:101E40003105D1F02115310561F02230310509F05D
:101E5000B0C0E5EAF3E0E4918E2F90E0E5EAF3E02C
:101E600007C0E9ECF3E0E4918E2F90E0E9ECF3E0B9
:101E7000009709F49EC0A5CFE7EBF3E0E4918E2F25
:101E800090E0E7EBF3E0F4CF8330910508F091C0E8
:101E9000880F991FFC01EF58FE4F0190F081E02D53
:101EA00089E090E08ECF82E190E0E3E9F3E089CF32
:101EB00080915E02882309F465CF853009F462CFF2
:101EC0008091E80083FD5ECF8091E80082FD8DCF98
:101ED0008091E80080FF83CF9091F3008091F20021
:101EE0002115310519F08830910550F041E008972F
:101EF00009F040E08091E8008E778093E8006FCF92
:101F000044914093F1003196215031090196E8CF78
:101F1000803809F04EC08091E800877F8093E80008
:101F200080915F028093F1009DCE811142C010919B
:101F300062021230F0F58091E800877F8093E8001C
:101F400010935F020E949002112311F084E005C0FB
:101F50008091E30087FDFACF81E080935E0242E04A
:101F600061EC81E00E94AF0242E261EC84E00E94F9
:101F7000AF0242E261EC82E00E94AF0242E260EC1A
:101F800083E00E94AF0280915E0213C080916202E2
:101F9000813079F481E0933009F080E080935D0234
:101FA0001092E9008091E800877F8093E8000E940A
:101FB00090028091E80083FF0AC08091E800877F4B
:101FC0008093E8008091EB0080628093EB00AA96FA
:101FD000E3E00C94411F0E94FE0C2FEF84E39CE091
:101FE000215080409040E1F700C0000088E19CE073
:101FF0000FB6F894A895809360000FBE9093600090
:10200000FFCFA8E0B0E0E7E0F0E10C94181F8C01EE
:10201000DC0114968C911497882309F4B8C021E050
:102020004C9111965C91119712966C9112971396A0
:102030007C91139715969C910E941D0B7C01F801D1
:102040008581882309F43CC1C701975780389105E1
:1020500008F001C5FFE0FE1508F489C08FEF93E09A
:102060000E94611F811183C069E3A62E63E0B62E32
:10207000E11047C0FE01339686E0DF011D928A958C
:10208000E9F75AE0452E7501BFEFEB1AFB0AC501CF
:102090000E94611F89831A82882309F468C08130F5
:1020A00009F079C06501E2E0CE0ED11CC7010E94A3
:1020B000611F8A83882309F45AC09FEF980F9330D9
:1020C00070F5F3E0AF0EB11CC6010E94611F8B8357
:1020D000882309F44CC01C82DE0111967D01F701B2
:1020E0002081222381F2213009F095C091818281E3
:1020F000913009F052C0F2E0EF0EF11C0E946C0C1E
:1021000053C0A11424E0B20691F1C5010E94611FE1
:10211000811101C0EA943FEFA31AB30AA9CF560177
:102120008430D1F642E0E42EF12C56012FEFA21AB2
:10213000B20AC6010E94611FE1E0F0E0EC0FFD1F52
:10214000EE0DFF1D8083882391F08C3741F4E2E08F
:10215000F0E0EC0FFD1FEE0DFF1D1082BDCF3FEF35
:10216000E31AF30A650187E0E816F104F1F68091BD
:10217000CA01877061F0D80115968C91882339F0D7
:102180008091380282FF03C082E00E94C607289631
:10219000E0E10C94341F57019FCF923049F422E0C4
:1021A000E20EF11C0E94F70BEFEFEE1AFE0A97CF3A
:1021B000933031F432E0E30EF11C0E94C10BF4CFF6
:1021C000943021F08FEFE81AF80AEECF92E0E90E92
:1021D000F11C30E020E0B7016F5F7F4FD70111960F
:1021E0004C918053990B8A30910550F02150310960
:1021F000D8F2EFE9FFE03197F1F700C00000F6CF29
:10220000429EF001439EF00D11249C012E0F3F1FB2
:10221000842F7B01E0CFE22FF0E0EC50FE4F549092
:10222000822F86958695869590E0FC01EC51FE4FB5
:1022300064902770712C022E02C0759467940A94E2
:10224000E2F731E063227724FC01EC52FE4F8490E8
:10225000912C022E02C0959487940A94E2F7A1E093
:102260008A229924FC01EC53FE4FC490D12C02C069
:10227000D594C7942A95E2F7B1E0CB22DD2461140E
:10228000710419F081EE0E94F70B8114910419F08A
:1022900086EE0E94F70B852D0E946C0C8114910430
:1022A00019F086EE0E94C10B6114710419F081EEE1
:1022B0000E94C10BC114D10409F476CF8CE21ECF69
:1022C000F701E851FC47E730F10508F0B5C3E453E6
:1022D000F04E0C94091F26E241EE61EEC8010E9407
:1022E0008A0C45CF27E245EE65EEF8CF26E241EEB7
:1022F00060EEF4CF27E245EE64EEF0CF26E241EE49
:1023000062EEECCF27E245EE66EEE8CF28E241E050
:10231000EBCF8091370281608093370295C0809126
:1023200038028860809338028FC0809137028260C3
:10233000F3CF809137028460EFCF809137028860BD
:10234000EBCF809138028160EDCF809138028260BE
:10235000E9CF809137028061DFCF809137028062C0
:10236000DBCF809137028064D7CF0E94FE0C809132
:1023700037028068D1CF809137028C60CDCF8091B9
:1023800038028360CFCF809137028E7FC5CF809196
:102390003802877FC7CF809137028D7FBDCF809174
:1023A00037028B7FB9CF80913702877FB5CF80917D
:1023B00038028E7FB7CF809138028D7FB3CF809166
:1023C00037028F7EA9CF809137028F7DA5CF809174
:1023D00037028F7BA1CF0E94FE0C809137028F774E
:1023E0009BCF80913702837F97CF809138028C7F7B
:1023F00099CF8091370282FB992790F921E09227AB
:1024000090FB82F990FB83F987CF80913802982F57
:10241000909591708E7F892B90FB81F983CF90915D
:102420003702892F8F7B96FF806476CF0E94FE0C47
:1024300090913702892F97FB87F980586DCF61E023
:102440008EE090E00E947F1F609137027091380209
:1024500084E090E00E949D1F0E94FE0C88CE60E008
:10246000EFCF90913702892F8F7E94FF806154CFF8
:1024700090913702892F8E7F90FF81604DCF909190
:102480003802892F877F93FF88604CCFF7E7EF16DC
:10249000FCE7FF0609F46AC028E7E2162CE7F2061B
:1024A00009F471C033E0E3163CE7F30609F48CC08D
:1024B00008F06BC0E1149CE7F90609F478C0A1E0CC
:1024C000EA16ACE7FA0609F485C0F8018581E080D8
:1024D000F180882309F48CC0C7010E94BE0AD82E5F
:1024E000682FC7010E947D07B7018D2D0E949F0AAA
:1024F0000E94E1057C01882ED8011596AC901597B5
:1025000016969C9092943FE093228091CA01877026
:10251000F1F0DA2CAA20E1F08F2D807F803451F089
:1025200080E28E0D883098F0911004C08F2D807E4F
:10253000803269F08091380282FF09C082E00E94F7
:10254000C6078091CA018770DD24D3948111D12CF4
:10255000CF2CC2942FE0C222BBE0BC1508F4B0C05F
:10256000EC2DF0E0ED52F04E0C94091F81E00E943A
:10257000DD0743E062E081E00E949907F8CD81E049
:102580000E94B907F6CF82E0F2CFBBE5EB16BCE7BD
:10259000FB0661F1ECE5EE16ECE7FE06E9F0FAE584
:1025A000EF16FCE7FF0609F090CF81E01CC00E9407
:1025B000FE0C2FEF34E38CE0215030408040E1F7F7
:1025C00000C000000E9431096FEF7FEF90E080E0D3
:1025D0000E949D1F0E94EB0F8091380282FB88278A
:1025E00080F991E089270E94E70C6FCF80E0FBCF54
:1025F000C7010E943707D82E77CFEF2DEF70BE2E80
:102600008F2D807F19F0B29490EFB922AA20B9F0F3
:10261000BB2069F080E28E0D883010F0811009C077
:102620008091ED01B82AB092ED010E945B0B8E2DD6
:1026300045C08091EC01B82AB092EC01F6CF8E2D06
:102640000E94C10BBB20E1F180E28E0D883010F0BA
:10265000811004C08B2D0E94FF0606C0B0948091AB
:10266000EC01B822B092EC010E945B0B29C0FF2D57
:10267000FF70BF2E8F2D807F803219F0B29480EFD3
:10268000B822882059F021E0821609F482C0AA20DD
:1026900009F48EC0992009F44FC0C9CF8091380247
:1026A00082FD46C0AA20F1F1BB2039F08091ED01F6
:1026B0008B298093ED010E945B0B80E00E94F70B59
:1026C000AC2DA850BB0B149710F40E946D04DD20B4
:1026D000A9F08091CA0180FD11C0F801158286958C
:1026E000869586950E94DD07C8010E9401108091A1
:1026F000CA018695869586950E94B90720E0D80183
:102700004C9111965C91119712966C9112971396B9
:102710007C91139714968C91149715969C910E9416
:102720001D0B35CD80E00E94C10BBB2049F292CF3A
:10273000AA20A1F0911004C08B2D0E94B70BC0CF2E
:1027400031E09312BDCF8091EB019B2D9823B916F8
:1027500009F4B6CF8B298093EB01B2CF9110B0CFA3
:102760008B2D0E94B00B9091EB018B2D892329F0CA
:102770008B2D809589238093EB0190919B018B2D6C
:10278000892309F49DCF8B2D8095892380939B010C
:1027900097CFAA2029F085E0891508F491CFCCCFF6
:1027A00094E0991508F48CCF8B2D0E94B00B88CF44
:1027B0009920D1F3A9E38A1209C0BFEFE7EEF3E055
:1027C000B150E040F040E1F700C000008E2D0E94C3
:1027D000C10B76CF8F2D86958695837061F0813001
:1027E00009F06ECFC7019370A11002C080E090E0A5
:1027F0000E94230465CFC7019370A11002C080E03E
:1028000090E00E9448045CCF6A2D8E2D0E94EC0758
:1028100057CF8F2D837091F5A11052CF4E2D429539
:1028200046954770440F440F8E2D8F70042E01C0C3
:10283000880F0A94EAF72E2D2071E4FE07C02FE0DE
:1028400030E001C0220F4A95EAF720953F2D3695DA
:1028500036953370323069F050F44091FF013130D9
:1028600029F0822B84230E94E9072ACF842B822B14
:10287000FACF282B8091FF018227F5CF8695AA20D9
:1028800011F08F2D8170882309F41ACF4E2D4295B7
:1028900046954770440F440F8E2D8F70042E01C053
:1028A000880F0A94EAF72E2D2071E4FE07C02FE06E
:1028B00030E001C0220F4A95EAF720953F2D36956A
:1028C00036953370323069F050F440910002313067
:1028D00029F0822B84230E949607F2CE842B822B30
:1028E000FACF282B809100028227F5CF2F2D2F7051
:1028F000F22EAA2029F0822F0E94DD078E2D1DCFF7
:102900008E2D0E94B00B8F2D0E94B907D9CE8E2D2F
:1029100032EF8316B1F1381570F090EF8916D1F0CF
:10292000A1EF8A1691F0AA2009F45EC091107FCE23
:102930008F2D8F712AC0B3EF8B1651F1E4EF8E12F9
:10294000F2CF8091380282FD2FC08F2D8F71AA2087
:10295000D9F21BC0AA2081F0F4E0F91508F4B0CE3A
:102960002F2D2F7181E090E001C0880F2A95EAF7A2
:10297000909100028927AFCF25E0291508F4A0CE59
:10298000EFCF8F2D8F71A110BFCF0E94DD0798CEA2
:1029900080E0AA2009F49FCF9F2D9F7181E001C0A4
:1029A000880F9A95EAF797CFAA2099F03F2D3F71AB
:1029B000F32E832F0E94DD078091380282FF07C02B
:1029C000A8E0FA9EC001112483608093CA018F2D74
:1029D000DCCF81E00E94C607B1E0B91508F070CEE7
:1029E00082E00E94C6076CCE992059F0893309F025
:1029F000EDCEEFEFF7EE23E0E150F0402040E1F7BD
:102A0000E3CE8F2D8F7180CFB6E1EB16BCE7FB06CE
:102A100009F03CCD8091ED018A7A91E009F490E0D3
:102A200090939A0169E2811165E38AE791E00E943F
:102A3000EE030E945B0B9BCBE6E1EE16ECE7FE0695
:102A400051F580919A0169E2811165E38AE791E08D
:102A50000E94C403EECFF701E851FC47E730F105CF
:102A600008F435CC1092A402C7019057839760F602
:102A700084E090E00E94691F9093380280933702AF
:102A8000F701E150F047E232F10508F042CCE152A3
:102A9000F04E0C94091FF7E7EF16FCE7FF0609F468
:102AA0006ECD82E028E7E2162CE7F20609F468CD45
:102AB0000CCDCF93DF938091C901807F09F04DC089
:102AC0008091C801882309F448C0E091A102509187
:102AD0006802C091C401D091C3016091C501709199
:102AE000C60147E05E17C9F18E2F90E0E49FF00128
:102AF0001124E759FD4F2481222391F1489FF001D1
:102B0000499FF00D1124DF01A759BD4F11962C915B
:102B100011972C1325C02C912D1322C015962C91A2
:102B2000159721111DC012962D913C91261B370B34
:102B3000283C3105A8F48091C9018F708061809391
:102B4000C901E159FD4F80818F708061808383ECE2
:102B500091E00E9401100E940607DF91CF91089535
:102B6000FC013196E770BECFA4E1B0E0EAEBF5E1FD
:102B70000C941C1F8C0186E0F801DE011F96019069
:102B80000D928A95E1F7F8018481E58093ECA92EF6
:102B900091E0B92E9091C701911128C0882319F1B5
:102BA000EE20F1F0C8010E94FA0AF82E8823C1F045
:102BB00087E0F801D50101900D928A95E1F78091A7
:102BC000C701813031F48091C3019091C4010E940A
:102BD000ED0A0E9459158F2D6496ECE00C94381F75
:102BE000C8010E940110FF24F394F5CFD080C1806A
:102BF00082809380F090C8012091C5013091C60178
:102C0000A401421B530BFF2009F4D9C0483C5105D5
:102C100008F092C08823F9F29091C4018091C90113
:102C2000282F207F09F056C0C91214C09091C3010B
:102C3000D91210C0E11048C08F7080618093C90123
:102C400083EC91E00E9401108091C901F801868314
:102C5000F12CC1CFE11038C06C2D8D2D0E942102C6
:102C60006C2D8D2D0E942102E82E8111F1CFDF867F
:102C7000C88A8F8598890E94ED0A292F22952F7086
:102C8000243058F49F70223088F0992399F0F8018D
:102C90009681907F79F4FE2C9ECF2A5F2F70223090
:102CA00068F0C8010E940110EF2CF5CF992311F0B4
:102CB000882389F3805E883070F3F3CF803F58F328
:102CC000815F833070F7E7CF8091C9018160809385
:102CD000C901BECFC91207C09091C301D91203C068
:102CE000EE2009F48DC0C8010E94FA0A882309F475
:102CF00077CFEE2009F474CF8091C901803288F03B
:102D00002091C3013091C401398728879B868A8628
:102D10009091C7019C871D868E87CE0108960E94E0
:102D2000011087E0F801A3ECB1E001900D928A95C3
:102D3000E1F70E94591557CF9091C901292F207FA3
:102D400051F483EC91E00E94011087E0F5011192AB
:102D50008A95E9F77DCF882309F43DCF8091C4019E
:102D60008C1110C08091C301D8120CC0E1100AC0B0
:102D70009683C8010E94011087E0F50111928A959F
:102D8000E9F729CFC8010E94FA0A882309F428CF5D
:102D9000EE2009F425CF8091C901803210F22091F4
:102DA000C3013091C4013A8329839C828B82909124
:102DB000C7019D831E828F83CE010196B0CF483C10
:102DC0005105D0F6882309F40ECFFE2CEE2009F42D
:102DD00007CF8091C4018C1120C08091C301D8120B
:102DE0001CC08091C90180FD0FC0982F907F61F0B9
:102DF0008683903F31F0982F907F905F8F70892B62
:102E00008683C8010E94011087E0F801A3ECB1E0BD
:102E100001900D928A95E1F7DECEC8010E94FA0A70
:102E200081117FCF8091C90181608093C901C80160
:102E30000E940110D0CEABE1B0E0E1E2F7E10C94EA
:102E4000241F4E8B5F8B688F798F8A8F9B8F192FF2
:102E500091111092EC011D8A86E0FE017696DE014A
:102E60001F9601900D928A95E1F70A8D002341F09B
:102E700021E04F85588969897A89C8010E941D0B14
:102E80000B8B1C8B87E0FE013F96DE0118960190AC
:102E90000D928A95E1F7CE0108960E94B415811132
:102EA0000CC087E0FE013896DE01119601900D926C
:102EB0008A95E1F78C8581110BC017E08091A10202
:102EC00090916802891331C06B96E4E00C94401F26
:102ED0002091680230E0C9010196877099274091DE
:102EE000A1024817190699F097E0929FD001939F8D
:102EF000B00D1124A759BD4FFE01319601900D92DE
:102F00009A95E1F7809368020E940607D6CF0E9447
:102F1000FE0C109268021092A10287E0E3ECF1E04F
:102F2000DF011D928A95E9F7C8CF819FC001112466
:102F300087599D4F0E94B415882331F28091A102D8
:102F400090E00196877099278093A102B7CFA6E001
:102F5000B0E0EDEAF7E10C94241F0E94B8038C0165
:102F60008091EE019091EF018017910781F0198215
:102F70001A820E94B803682F49815A81792F80E014
:102F800090E00E941B171093EF010093EE0126962C
:102F9000E4E00C94401FACE0B0E0E1EDF7E10C940C
:102FA0001C1F8E010F5F1F4F8CE0F80111928A9554
:102FB000E9F792E4E92E91E0F92E6801AA24A3949E
:102FC000B12CF70181917F018F3F09F446C0F8943D
:102FD000E82FE295EF70F0E021A18F70A50102C00B
:102FE000440F551F8A95E2F7CA01922F982B91A39F
:102FF00092A18095892382A3789400C0E8E4F1E04F
:1030000021E030E0912C812C41914F3F09F467C0C1
:10301000A42FA295AF70B0E090968C9190E04F7085
:1030200002C0959587954A95E2F780FD58C0C90181
:10303000882A992A220F331F51E0E835F50721F736
:10304000F701319780818F3F11F00E94E50480EAFB
:103050008A95F1F7F60191828082F2E0CF0ED11CC1
:1030600048E4E41641E0F40609F0ABCF4CE050E050
:10307000B80183EF91E00E94B31F892B99F18CE096
:10308000F801A3EFB1E001900D928A95E1F781E09C
:103090008093F2010E94B8039093F1018093F001B4
:1030A0008091F0019091F1010E949D030597F0F04D
:1030B0004CE050E063EF71E083E192E00E94B31FC7
:1030C000892BC9F08CE0E3EFF1E0A3E1B2E00190DD
:1030D0000D928A95E1F781E01092F20108C090E02C
:1030E00080E0A6CF8091F2018111DACF80E02C96AA
:1030F000ECE00C94381F80E0EFCF1F920F920FB6D8
:103100000F9211242F933F934F935F936F937F936D
:103110008F939F93AF93BF93CF93DF93EF93FF93DF
:10312000D091E900DF708091EC00C82FC17080FD64
:10313000C0E81092E9008091F000877F8093F00052
:1031400078940E942D0D1092E9008091F000886023
:103150008093F000CD2BCF70C093E900FF91EF91E9
:10316000DF91CF91BF91AF919F918F917F916F919F
:103170005F914F913F912F910F900FBE0F901F9035
:1031800018951F920F920FB60F9211242F933F9311
:103190004F935F936F937F938F939F93AF93BF935F
:1031A000EF93FF938091E10082FF09C08091E200DC
:1031B00082FF05C08091E1008B7F8093E1008091C8
:1031C000DA0080FF24C08091D80080FF20C0809169
:1031D000DA008E7F8093DA008091D90080FF9DC055
:1031E00080E189BD82E189BD09B400FEFDCF81E0A7
:1031F00080935E0280913902811109C00E944002D1
:103200000E94E1028091E20084608093E20080915C
:10321000E10080FF17C08091E20080FF13C0809121
:10322000E2008E7F8093E2008091E20080618093D3
:10323000E2008091D80080628093D80019BC85E0BC
:1032400080935E028091E10084FF2BC08091E200B8
:1032500084FF27C080E189BD82E189BD89B5982FAF
:10326000917080FFFBCF8091D8008F7D8093D80034
:103270008091E1008F7E8093E1008091E2008F7E5B
:103280008093E2008091E20081608093E20080916F
:103290005F02882309F447C084E080935E02809136
:1032A0005E028091E10083FF27C08091E20083FFEE
:1032B00023C08091E100877F8093E10082E08093CA
:1032C0005E0210925F028091E1008E7F8093E100A8
:1032D0008091E2008E7F8093E2008091E200806125
:1032E0008093E20042E060E080E00E94AF028091C3
:1032F000F00088608093F000FF91EF91BF91AF9153
:103300009F918F917F916F915F914F913F912F91FD
:103310000F900FBE0F901F90189519BC10925E026F
:103320001092390274CF8091E30087FD93E090936F
:103330005E02B5CF78941F921FB61F9211248F930F
:103340009F93AF93BF938091330290913402A091E9
:103350003502B09136020196A11DB11D8093330252
:1033600090933402A0933502B0933602BF91AF918F
:103370009F918F911F901FBE1F9018951F921FB68F
:103380001F9211248F939F93AF93BF93809132022A
:10339000811113C08091330290913402A0913502C3
:1033A000B09136024196A11DB11D809333029093D6
:1033B0003402A0933502B0933602BF91AF919F9132
:1033C0008F911F901FBE1F901895CDB7DEB7EE9757
:1033D0000FB6F894DEBF0FBECDBF85B7806885BF3E
:1033E00085B7806885BF84B7877F84BF0FB6F894A0
:1033F000A8958091600088618093600010926000C1
:103400000FBE80E890E00FB6F8948093610090932F
:1034100061000FBE83EE94E0909379018093780170
:103420000E9440020E94E1028091E2008460809349
:10343000E200789480915E028823A1F01091E90067
:103440001F709091EC00892F817090FD80E8182BFF
:103450001092E9008091E80083FD0E942D0D1F70FD
:103460001093E90082E084BD93E095BD9AEF97BD8B
:1034700080936E000E94420B811102C00E942D0AAF
:1034800081E08093100253985B9A55985D9A8FE87B
:1034900091E00197F1F700C000002091100241E196
:1034A00052E0FA018E2F841B821708F4C7C002E491
:1034B00011E028E4E22E21E0F22ED8018D918D0159
:1034C0008F3F11F00E94E504E016F106B1F708E421
:1034D00011E098E5E92E91E0F92EF80181918F0134
:1034E0008F3F11F00E94E504E016F106B1F78CE081
:1034F000E3E1F2E0DF01282F1D922A95E9F7E3EFDF
:10350000F1E0DF011D928A95E9F790E080E00E94EA
:10351000691F863E9E4F21F40E94420B811167C0B5
:1035200066EE7EEF90E080E00E949D1F60E082E00A
:1035300090E00E947F1F60E083E090E00E947F1F88
:103540001092FF0160E074E184E090E00E949D1F12
:1035500060E086E090E00E947F1F6FEF87E090E0E0
:103560000E947F1F40E050E0BA0188E090E00E9496
:10357000911F60E084E290E00E947F1F60E087E19D
:1035800090E00E947F1F60E08CE090E00E947F1F2F
:1035900060E08DE090E00E947F1F19821A821B82FA
:1035A0001C821D821E821F82188648E050E068E15E
:1035B00070E0CE0101960E946F1F40E050E0BA011A
:1035C00080E290E00E94911F80E00E94140A0E9415
:1035D0002D0A40E050E0BA018FE090E00E94911F78
:1035E00040E050E0BA0183E190E00E94911F82E048
:1035F00090E00E94611F8093010284E090E00E94AD
:10360000691F90933802809337020E94CB17EFEF27
:10361000F6E721E0E150F0402040E1F700C0000073
:103620000E94CB178091130280FF14C06FEF7FEFD1
:1036300090E080E00E949D1F0E94310989B183FBC8
:10364000882780F94D9904C090E0892B81932ACF77
:1036500092E0FBCF83E090E00E94611F0E94E907A7
:1036600080E091E090932F0280932E020FE1402E94
:1036700002E0502E82E0682E712C80915E0200E103
:1036800012E1853009F490C00E94CB17B2E0AB2E56
:10369000B2E0BB2E13E1812E12E0912E4EE052E0FB
:1036A000D401F501219131918D919D914E175F07C4
:1036B00009F484C028173907A9F3312CF4010191CA
:1036C00011914F01D501CD90DD905D01C016D1065D
:1036D00061F1C026D126212CEE24E394F12CC60101
:1036E0008E219F21892BB9F029AE3AAE0E94B803F2
:1036F0009CAF8BAFB1E0BDAF91E098012E213F218F
:10370000232B09F490E09EAF49AD5AAD6BAD7CAD73
:103710008DAD0E941B172394EE0CFF1CE0E12E12CE
:10372000DECFF5013297118300833394F6E03F1228
:10373000C5CF0E94AC0348C080915E02843021F165
:103740001092320288E190E0A0E40FB6F894A895B8
:10375000809360000FBEA093600083B7817F846078
:1037600083BF83B7816083BF7894889583B78E7F4A
:1037700083BF0FB6F894A89580916000886180930C
:103780006000109260000FBE80915D02882361F09E
:103790000E94CB17E3E1F2E081919191892B09F02E
:1037A000FBC24E165F06C1F780915E02853009F4B8
:1037B000C3CF0E94FE0C0E946D0466CF2817390704
:1037C00009F07BCF0E94A71710E000E052E0352EF1
:1037D0006DEFB62EAA24A3947CEF972EE3E08E2EF5
:1037E00080911002181708F40DC101110E94AC035A
:1037F00086E0E6E2F2E0DE01119601900D928A95F4
:10380000E1F7109228021092290210922A021092D7
:103810002B028B819C81892B09F44AC08091240260
:10382000909125020E949D039C0190911F02992373
:1038300009F4D6C225313105D8F19F3F19F09F5FB9
:1038400090931F021B81112359F00E94C3049FEF24
:1038500011160CF491E0899F802D11248093280289
:103860001C81112359F00E94C3049FEF11160CF420
:1038700091E0899F802D11248093290230912802A4
:103880003323B1F020912902222391F045EB340338
:10389000C0011124992309F43DC19093280245EBFE
:1038A000240390011124332309F438C130932902F1
:1038B0008D819E81892B09F44AC0809122029091CA
:1038C00023020E949D039C0190912002992309F4F8
:1038D00082C221353105D8F19F3F19F09F5F909347
:1038E00020021D81112359F00E94A1049FEF11169F
:1038F0000CF491E0899F802D112480932A021E816F
:10390000112359F00E94A1049FEF11160CF491E0CD
:10391000899F802D112480932B0230912A0233231A
:10392000B1F020912B02222391F045EB3403C0012A
:103930001124992309F4F6C090932A0245EB24033D
:1039400090011124332309F4F1C030932B0246E097
:1039500050E0BE016F5F7F4F86E292E00E94B31F8E
:10396000892B61F48091280290912902892B9091F2
:103970002A02892B90912B02892B11F00E947A0444
:1039800086E0FE013196A6E2B2E001900D928A95A2
:10399000E1F70E946D0490911202891721F0809343
:1039A00012020E94AC0380915E02843009F065CE61
:1039B00083E08093E9008091E80082FF5ECE8091F1
:1039C000E80090E085FF0CC00E945F0240E2E42E18
:1039D000F12C8E010F5F1F4F882309F4B5C091E0D1
:1039E0008091E8008B778093E800992309F445CE15
:1039F000E981E150E53108F0C0C0F0E0EF5FFF4D34
:103A00000C94091FC12ED12CE9B1E3FBEE27E0F99C
:103A10004D997EC080E08E2BD601AF5EBD4FEC91FC
:103A20009E2F9370891709F471C0EE0FEE0FE82BEB
:103A3000EC93EF70F0E0E85AFE4FC601815F9D4FB6
:103A40007C018081D7019C91890F8C9320E082308A
:103A50003CF1F601E25FFD4F80818F5F80830E9421
:103A6000B8031DA79EA6682F8FA798AB89AAAAAAFC
:103A7000412F5CEF792F83E091E00E941B170E9499
:103A8000B8031BAB9CAA682F8DAB9EAB8FAA18AE58
:103A9000412F5CEF792F83E090E00E941B1721E01B
:103AA000F70180818F3F3CF5F601E25FFD4F808199
:103AB000815080830E94B80319A3BAA2682F8BA3F8
:103AC0009CA33DA2AEA2412F5DEF792F82E091E051
:103AD0000E941B170E94B8031FA3B8A6682F89A7CE
:103AE0009AA73BA61CA6412F5DEF792F82E090E0BC
:103AF0000E941B1721E0D7018C91082E000C990B16
:103B0000B3010E94F51EF7018083022B1F5F68CE70
:103B100082E081CF81E080932802C1CE81E0809352
:103B20002902C6CE81E080932A0208CF81E08093EB
:103B30002B020DCF8091F100D8018D938D01B1E062
:103B4000EB1AF10809F44BCF8091E80085FDF2CF24
:103B50008091E8008B778093E8000E945F028823C1
:103B600099F33DCF1A828CE08B831BC08A8182300F
:103B700009F428C128F4813061F08FEF898311C0E6
:103B80008330C1F08430C9F71B821C821D821E82E3
:103B900008C00E94AC030E940F1F6B837C838D833F
:103BA0009E8340E250E0BE016F5F7F4F82E00E9443
:103BB000C40863CD2B81822F90E0FE013196225FF5
:103BC0008630910570F7DC01AA0FBB1FAD5EBD4FBB
:103BD0003C9111964C91438334830196329628137D
:103BE000EFCFDFCF8A81823019F08530D1F2C5CF97
:103BF0006B817C818D819E810E940F1F88E290E005
:103C00000E947F1FCECF4C816B818A810E94700AF7
:103C10009827892798279E838D83C3CF2D813E8146
:103C20003227232732274C816B818A810E94900999
:103C3000B8CF0E94B609B5CF80E18A83B2CF1A828D
:103C400087EC92CF0A811B81102701271027FE01E4
:103C500031967F01CC80CF018C0D911D6C01C80184
:103C6000875C9C4FEC14FD0409F49BCF073C1105C5
:103C700058F40E94611FD70114968C930F5F1F4F59
:103C8000FFEFEF1AFF0AEBCFF7011482F7CF0A819B
:103C90001B81102701271027CE0101966C01EC80B3
:103CA000E00EF12EF11CC801875C9C4FE016F10676
:103CB00009F477CF073C110528F4D60114966C91CE
:103CC0000E947F1FBFEFCB1ADB0A0F5F1F4FEBCFA6
:103CD0000E94550966CF84E0B0CF0A811B8110276E
:103CE00001271027FE0131967F01CC80CF018C0D7A
:103CF000911D6C01C8018996CE14DF0409F451CFDF
:103D00000115A3E01A0750F40E94611FF701848394
:103D10000F5F1F4FBFEFEB1AFB0AECCFD7011496D2
:103D20001C92F6CF0A811B81102701271027FE0164
:103D300031966F01EC80E00EF12EF11CC8018996DE
:103D4000E016F10609F42DCF0115F3E01F0728F462
:103D5000D60114966C910E947F1FBFEFCB1ADB0A2D
:103D60000F5F1F4FEBCF41E08C81811101C040E01C
:103D70006B818A810E943D0A4BCF2D813E81322783
:103D80002327322741E08C81811101C040E06B8103
:103D90008A810E94650905CF09BD19BD09B400FEDD
:103DA000FDCF8091D8008F7D8093D8008091E00076
:103DB00082608093E0008091E00081FDFCCF0E9452
:103DC000FE0CF2CC88E290E00E94611F1B821C82F4
:103DD0001D828E83E6CE2B30310508F07FCDB7CD26
:103DE0002B30310508F02BCD63CD97FB072E16F451
:103DF000009407D077FD09D00E944D1F07FC05D025
:103E00003EF4909581959F4F0895709561957F4FF1
:103E10000895EE0FFF1F0590F491E02D0994692796
:103E20009627692778278727782708952F923F922A
:103E30004F925F926F927F928F929F92AF92BF92BA
:103E4000CF92DF92EF92FF920F931F93CF93DF9366
:103E5000CDB7DEB7CA1BDB0B0FB6F894DEBF0FBEC3
:103E6000CDBF09942A88398848885F846E847D8410
:103E70008C849B84AA84B984C884DF80EE80FD8012
:103E80000C811B81AA81B981CE0FD11D0FB6F89488
:103E9000DEBF0FBECDBFED010895AA1BBB1B51E1D4
:103EA00007C0AA1FBB1FA617B70710F0A61BB70BAA
:103EB000881F991F5A95A9F780959095BC01CD014F
:103EC0000895F999FECF92BD81BDF89A992780B5E2
:103ED0000895A8E1B0E042E050E00C94A51FDC0199
:103EE000A40FB51F4150504048F0CB01840F951FDF
:103EF0002E910E94801F41505040D0F70895262FE8
:103F0000F999FECF92BD81BDF89A019700B40216CF
:103F100039F01FBA20BD0FB6F894FA9AF99A0FBE7D
:103F200008950396272F0E94801F0E947F1F252F30
:103F30000E94801F242F0C94801F0196272F0E941F
:103F4000801F0C947F1FDC01CB01FC01F999FECF8F
:103F500006C0F2BDE1BDF89A319600B40D92415011
:103F60005040B8F70895FB01DC0104C08D91019029
:103F7000801921F441505040C8F7881B990B0895CF
:103F8000F894FFCF0E0E360ED90F360ED90F690EEC
:103F90008A0ED90F880F950F76117A116B11721155
:103FA0007E1182118611FD12FD1237133713EA13A9
:103FB0000414601360130914761487148714C31152
:103FC0003812CB1195119911CF119D11D311DF1119
:103FD000A9113112AD11E311B111E7110F12B51191
:103FE000EB111612BB11F111F911A111D711A51185
:103FF000DB11BF11F51105121F122F128F11C711FE
:104000003F12B21DB61DF21D031E0E1E191EBD1D50
:10401000BD1DBD1DBD1DBD1D1C1E1F1E221E471E1C
:0C402000681E6B1E6D1E921EB31EBD1E9E
:10402C009A030D090609FF0801818283E200E90069
:10403C00EA00B500B600B700CD008301CC008A01C0
:10404C009201940121022302240225022602270256
:10405C002A02B300B4006F0070009F01CB019F02D5
:10406C00A002326766363534C6F0F1F4F5F6F73057
:10407C00313390919293979500FF0100010000FF5E
:10408C00FF0000010001FF004022B684016201AC78
:08409C00004A036303830300E3
:00000001FF
