:100000000C94A2030C94DA030C94DA030C94DA0334
:100010000C94DA030C94DA030C94DA030C94DA03EC
:100020000C94DA030C94DA030C94D22A0C948E2AE2
:100030000C94CF2B0C94DA030C94DA030C94DA03AF
:100040000C94DA030C94DA030C94DA030C94DA03BC
:100050000C94DA030C94AB2B0C94DA030C94DA03B3
:100060000C94DA030C94DA030C94DA030C94DA039C
:100070000C94DA030C94DA030C94DA030C94DA038C
:100080000C94DA030C94DA030C94DA030C94DA037C
:100090000C94DA030C94DA030C94DA030C94DA036C
:1000A0000C94DA030C94DA030C94DA0305010902C8
:1000B000A10185020901A1000509190129081500FE
:1000C0002501950875018102050109300931158165
:1000D000257F95027508810609381581257F9501D0
:1000E00075088106050C0A38021581257F95017572
:1000F000088106C0C005010980A101850319012AF4
:10010000B700150126B700950175108100C0050CD8
:100110000901A101850419012AA002150126A002E6
:10012000950175108100C005010906A1018506052C
:100130000719E029E71500250195087501810205D9
:1001400007190029EF1500250195F07501810205B9
:10015000081901290595057501910295017503910D
:1001600001C00660FF0961A1010962150026FF00B8
:100170009520750881020963150026FF00952075FA
:10018000089102C005010906A101050719E029E748
:1001900015002501950875018102950175088101F9
:1001A0000507190029FF150026FF0095067508812F
:1001B000000508190129059505750191029501753C
:1001C000039101C0FD377A585A000004E6D6B446C0
:1001D0000200210116000000742FE5A3E0070102D0
:1001E000195D003D8889C65436C3174FE4E4650B9A
:1001F0008B5661E0802676EE2C881250354AD16D00
:10020000BF9E8D0C3FD6A0F8C68F56E920DAD502E6
:10021000383EAC5F712F42AD05F08A72CF9EFEFC76
:10022000A61CC111E693C27A41DD60592E21EB2F45
:100230000D8E504A9ECEF704BE8C510CEDA8A88CB2
:10024000C48687FEB60A9E34C5B92473A66126EF1C
:1002500010C3717CD56501830AB583E2432E3BF25E
:10026000A647AD03FFF40A417FD01F2C3FD1940D68
:100270003C80C7148340E8493198002BBE395DA803
:10028000A3A573EC5B3D31AA477D9DDA3B6B54B669
:100290005085D4028BCA446FB2EB16C33EFF73691C
:1002A000491CE4B90F2978BBCD8995DE2AAD6D7D57
:1002B0002117D20191CF9D1F52B018134422A2DF03
:1002C00051DE9EECA806BCB83C840E761A73502909
:1002D000E30067DF637C2F1A82EBF52C6E80B62A71
:1002E000CFF9E0EEC8D6B86118328003C86BED04D0
:1002F00052A3C949129A714AD44FB2FE651561F5ED
:10030000FD607FA266B04A9B057A75A7BDF451EEE9
:1003100057F26286F15CD03E7178A8831ACE4B58B2
:10032000E658E9EEAD361805D559CE9695290A134B
:1003300059BE7B24603532186E5524E26B656B9E86
:100340001E15E000BACF3CEA17F4F65B0EFB4ED365
:1003500022B62786160006B2DD63D819DB91010F9D
:10036000C3EB3EB08549A7F8D59418B53031B83302
:10037000F58405A5A9CD2CF5B4EA67A9F7F5D91739
:100380006D074B728DA507499F6E9A077C84B90350
:10039000F7205D1708E4751F48B78AD4406A2929F9
:1003A000A3757DFDEEFE27DE9D08178FF6AEF27C6D
:1003B000347C4A60192804FAA38C2564B08F136B2F
:1003C000762A1EB1CD0C2B4701E55CABE8A9A169EB
:1003D000F65221D4FA7825BAAEE780DB6BFA2337E0
:1003E000B3AD4EC781EEDCDFC31B2C5B58BC9C8BCE
:1003F000FB999CCF79AC4604843947560000000035
:10040000FDCA1E007A2EB0570001B504820E00000E
:1004100061A31C31B1C467FB020000000004595AFB
:1004200001000100F3031210F70F000002000200A8
:10043000EF031210F70F000003000100F403121085
:10044000F70F000004000200D9031210F70F5A073B
:1004500005000100F5031210F70F0000060002006E
:10046000DB031210F70F000007000200F103121067
:10047000F70F000008000100F6031210F70F00004C
:1004800009000200DD031210F70F35070A00020011
:10049000DF031210F70F35070B000200E103121003
:1004A000F70F35070C000200E3031210F70F3507B2
:1004B0000D000200E5031210F70F35070E000200D1
:1004C000E7031210F70F35070F000200E9031210BF
:1004D000F70F350710000200EB031210F70F350776
:1004E00011000200ED031210F70F35071200020091
:1004F000F7031210F70F000013000200F9031210A7
:10050000F70F000014000100FB031210F70F0000AA
:10051000150000000000BB06941600002900000032
:100520003A003B003C003D003E003F0040004100DF
:1005300042004300440045000000000035001E005A
:100540001F00200021002200230024002500260097
:1005500027002D002E002A002A004A002B0014003C
:100560001A000800150017001C0018000C001200EB
:1005700013002F003000310000004B003900040050
:100580001600070009000A000B000D000E000F0006
:10059000330034006400280000004E00E100320007
:1005A0001D001B0006001900050011001000360098
:1005B00037003800E500520000004D00E000000068
:1005C000E300E2002C0000002C0000002C000000E2
:1005D000E700E4005000510000004F00AA00A9000D
:1005E00009025B00030100A0FA09040000010301F5
:1005F00001000921110100012240000705810308C3
:10060000000109040100020300000009211101009A
:1006100001222200070582032000010705030320B1
:10062000000109040200010300000009211101007A
:100630000122B60007058403200001120100020018
:10064000000008278C49340001010203011C0376D5
:1006500000690061006C003A0066003600340063F7
:10066000003200620033006300000010035000619C
:10067000007200610067006F006E0000001003410F
:10068000007200740065006D0069007300000004D2
:10069000030904000000000000000000000000004A
:1006A000000000000000000000000000000000004A
:1006B000000000000000007E0F00D4FFFFFFC70015
:1006C00000007800000000000000002A2B28000035
:1006D00000000000000000000000000000002900F1
:1006E0000000002C1E3420212224342627252E36FB
:1006F0002D3738271E1F2021222324252633333669
:100700002E37381F0405060708090A0B0C0D0E0FBB
:10071000101112131415161718191A1B1C1D2F313E
:1007200030232D350405060708090A0B0C0D0E0FA2
:10073000101112131415161718191A1B1C1D2F311E
:1007400030354C0011241FBECFEFDAE0DEBFCDBF45
:1007500004B603FE18C08091520590915305A091F4
:100760005405B09155058730904BA740B04B59F4D4
:10077000109252051092530510925405109255058F
:10078000E0E0F8E3099511E0A0E0B1E0E0EAFCE682
:1007900002C005900D92AC38B107D9F725E0ACE85E
:1007A000B1E001C01D92A235B207E1F70E94F62B1D
:1007B0000C94FA350C940000482F2091500590912C
:1007C000070559E0291302C080E0089530E0529FE8
:1007D000F001539FF00D1124E85FFA4F81816813F7
:1007E00006C08081481303C085818111EECF2F5F41
:1007F0003F4F2770E7CFE8EDF0E080818E7F808368
:100800001092E2001092DA001092E100A0EEB0E047
:100810008C9181608C9380818F77808319BCA7ED48
:10082000B0E08C918E7F8C9380818F7E808310923C
:10083000D80408952091E4003091E50095E6A901DF
:100840002091EC00822F817020FF06C08091E8008B
:1008500080FF06C080E008952091E80022FD1AC0C4
:100860008091FD04882389F0853089F08091EB0028
:1008700085FD0FC02091E4003091E5004217530739
:10088000F9F29150E1F684E0089582E0089583E062
:10089000089581E008958091FF0487FF13C080913F
:1008A000E80082FF06C08091E8008B778093E80023
:1008B00004C08091FD048111F2CF08958091FD0460
:1008C0008823D9F38091E80080FFF8CF8091E80079
:1008D0008E77ECCF982F9093E900242F762F50E05D
:1008E000891731F07091EC002091ED005091F000EB
:1008F00021FD07C09F5F973071F78093E90081E089
:1009000008953091EB003E7F3093EB003091ED0085
:100910003D7F3093ED003091EB0031603093EB0080
:100920007093EC002093ED005093F0002091EE00C6
:1009300027FDE0CF80E00895B0E0A0E0E2EAF4E037
:100940000C943D35C8EDD0E088818F7E8883E7ED3B
:10095000F0E080818160808384E082BF81E08093C9
:10096000D80488818E7F888302EE10E0F80110821F
:100970001092DA0081EEC82ED12CF6011082888107
:100980008F77888388818068888388818F7D88833A
:1009900019BC1092FD041092FE041092FC041092F7
:1009A000FB0490EEE92EF12CF70180818B7F808390
:1009B00088818160888342E060E080E00E946A0470
:1009C000F60180818E7F8083F80180818160808341
:1009D000808188608083F70180818E7F8083888119
:1009E00080618883CDB7DEB7E8E00C945935FC010F
:1009F000809105059091060586179707A0F061156F
:100A0000710529F49091E8009E779093E80090E0BA
:100A10006115710551F4911108C08091E80082FFC1
:100A200034C080E00895BC01F2CF8091FD0488239A
:100A3000C1F18530C1F18091E80083FD30C0809123
:100A4000E80082FDEACF8091E80080FFE1CF80914D
:100A5000F3002091F200382F6115710519F028304C
:100A6000310558F091E02830310509F090E02091EF
:100A7000E8002E772093E800CBCF81918093F1009E
:100A8000615071092F5F3F4FE7CF8091FD048823AC
:100A900041F0853041F08091E80083FFBECF81E0D6
:100AA000089582E0089583E008958091DA0408951E
:100AB0009C014FB7F8948091D2049091D304A091F7
:100AC000D404B091D5044FBF821B930B08952FB768
:100AD000F8946091D2047091D3048091D4049091E1
:100AE000D5042FBF08952FB7F8948091D204909128
:100AF000D304A091D404B091D5042FBF08952091C0
:100B000015012223C1F02091D60427FF14C0E62F3F
:100B1000E695E695E695EE31F8F4E80FF92FF11D2C
:100B2000677021E030E001C0220F6A95EAF7828108
:100B3000822B82830895FC0132962FEF30E04191A1
:100B4000641751F02F3F19F4411101C0232F3F5F6B
:100B50003630A9F72F3F09F40895820F911D27FD24
:100B60009A95FC0162830895A3E0B0E0EAEBF5E01A
:100B70000C9443352091CF043091D00428173907C5
:100B8000A1F09093D0048093CF04E091CD04F09134
:100B9000CE04309751F024E029839B838A8306801A
:100BA000F781E02DCE01019609952396E2E00C94A1
:100BB0005F35A3E0B0E0EFEDF5E00C944335209114
:100BC000CB043091CC0428173907A1F09093CC04C2
:100BD0008093CB04E091CD04F091CE04309751F096
:100BE00023E029839B838A830680F781E02DCE0151
:100BF000019609952396E2E00C945F35E091CD04CF
:100C0000F091CE04309729F00190F081E02D099504
:100C1000089580E00895CF93DF93EC014091BB04E9
:100C20005091BC046091BD047091BE042FB7F8943C
:100C30008091D2049091D304A091D404B091D504B2
:100C40002FBF841B950BA60BB70B843F9140A105CA
:100C5000B10518F58091BB049091BC04A091BD042E
:100C6000B091BE048093B7049093B804A093B904E4
:100C7000B093BA0484EF91E0A0E0B0E08093B304B5
:100C80009093B404A093B504B093B604D093C30476
:100C9000C093C204DF91CF9108950E9467056093CD
:100CA000B7047093B8048093B9049093BA0482E3B4
:100CB00090E0A0E0B0E0E2CFFC018481862351F413
:100CC00092819923B9F06923808583FF05C081E073
:100CD00061110FC080E00895892F8F7092959F70E9
:100CE000982B862F8F7062956F70682B81E096131A
:100CF000F1CF089581E0FDCFDC016091AD048091DA
:100D0000AE04962F891301C00895292F30E0F90110
:100D1000EE0FFF1FEB55FB4F408151814A175B07D8
:100D2000A1F487E08A9FA0018B9F500D11244C5F96
:100D30005B4F81E0FA0184839613E6CF2F5F3F4F2C
:100D4000237033272093AD0408952F5F3F4F922FD8
:100D50009370D8CF1092020410920104E4E0F4E002
:100D60008581811102C014821682379684E0EC33AB
:100D7000F807B1F70895B0E0A0E0E1ECF6E00C94DC
:100D80003B358FEF9FEF4430510508F469C0409127
:100D9000D60441FB882780F990E0880F991F42FB19
:100DA000002700F910E0000F111F000F111F802B0A
:100DB000912B40FBCC24C0F8D12C8C299D2943FBDE
:100DC000222720F9C22FE0E0DE2F53E0CC0FDD1FF9
:100DD0005A95E1F78C2B9D2B44FBAA27A0F9B0E094
:100DE000E4E0AA0FBB1FEA95E1F78A2B9B2B45FB9A
:100DF000EE27E0F9F0E0A5E0EE0FFF1FAA95E1F77E
:100E00008E2B9F2B46FB222720F930E0B6E0220FE5
:100E1000331FBA95E1F7822B932B47FB222720F94A
:100E200030E03695322F222737952795822B932B4A
:100E30002091D704322F3170F32EE82EF92A26950F
:100E40002170B22EBB0CA82EBF28C501BB0CAA0B6B
:100E5000BB0BFB0180839183A283B38390E080E08E
:100E6000CDB7DEB7EAE00C945735E9EDF3E08481C5
:100E700095812AE030E0B9010E94FE3460931001B0
:100E8000868180930F01828580930E0184858093F3
:100E90000D0186859785B9010E94FE3460930C018F
:100EA000808980930B01828980930A0184898093D1
:100EB000090108958091D9039091DA03909312016A
:100EC000809311010895EDE6F2E090E080E06FEC90
:100ED00079E246EF59E225E439E277836683518768
:100EE0004087338722879587848701963E9688308E
:100EF000910599F7089581152CE7920741F4209107
:100F0000B1043091B204232B11F490E080E00895F5
:100F10000E9473059C019091550280915602982B76
:100F200021F0309352022093510290915702809108
:100F30005802982B21F03093500220934F02E091F9
:100F4000CD04F091CE04309749F082E080935302B3
:100F50000480F581E02D83E592E009950895809164
:100F60004E0280FF0CC060910A0170E07595679594
:100F7000759567956115710549F1862F089581FF73
:100F800006C060910A0170E075956795F3CF609196
:100F90000A0182FD0BC090914D029923A1F060914E
:100FA000090180910A01961738F0682F70E06038C7
:100FB000710500F38FE70895899FC001112470E047
:100FC0000E941235F4CF61E070E0D7CF81E0089540
:100FD00080914E026091E1037091E20380FF16C0A0
:100FE00020910E01269FC001279F900D1124BC0166
:100FF00076956795769567956038710508F043C0DA
:101000006115710509F441C0862F089581FF0BC059
:1010100020910E01269FC001279F900D1124BC0135
:1010200076956795E9CF82FF09C080910E019B01FB
:10103000829FB001839F700D1124DECF20914C025E
:101040002223D1F290910D0180910E01482F50E0A2
:10105000291748F0CB01849FB001859F700D949FA4
:10106000700D1124C9CF289F90011124269FA00143
:10107000279F500D369F500D1124692F70E0CA0133
:101080000E94FE34B9CF8FE7089581E0089580E093
:101090000895F894E82FE295EF70F0E031A1282F41
:1010A0002F7081E090E001C0880F2A95EAF7982F11
:1010B0009095932391A392A1892B82A3789408956C
:1010C0009091D60492FF06C0282F28712830F9F499
:1010D000877F846093FF06C0282F28712831F1F4A0
:1010E000877E84612091D70420FF06C0382F387195
:1010F0003830D9F4877F816021FF06C0282F2871FE
:101100002831D1F4877E816194FD877E0895282F50
:1011100024712430F9F68B7F8860DCCF282F24716E
:10112000243101F78B7E8861DDCF382F317131306A
:1011300019F78E7F8860E0CF282F2171213121F7A8
:101140008E7E8861E1CF82389105B9F1B0F48133A8
:10115000910509F47DC048F48932910509F46DC008
:101160008A32910509F47BC008958533910509F40D
:101170005FC08933910509F10895833E9105D9F146
:1011800038F4803E910529F1823E910579F1089568
:10119000863E9105D9F1873E910509F43EC0843E13
:1011A000910541F52091D70421FF24C08091D604F8
:1011B00084FD19C087EE90E008952091D604237035
:1011C00009F05AC02091D70423FF14C089E290E0AF
:1011D00008952091D60420FD38C03091D70430FF07
:1011E00009C024FF43C090E080E008952091D60418
:1011F00022FDF7CF08952091D60422FD3AC0309108
:10120000D70430FD39C024FFF5CFEDCF2091D604AF
:1012100023FFF0CF24FDE7CFCDCF2091D60423FDCF
:101220002EC03091D70431FFEECF84EE90E00895C8
:101230002091D60425FFDECFC9CF2091D60425FD0D
:1012400021C02091D70423FFD5CF89E390E0D2CFEE
:101250002091D60426FFCECF8AE290E00895209117
:10126000D60426FFC7CF81E390E0089583EE90E097
:10127000089582EE90E0089580EE90E0089586EE65
:1012800090E0089585E390E008951F93CF93DF9356
:101290000E94A308EC01C11580E5D807F0F5C1153F
:1012A00080E4D80708F09CC0C03ED10520F5CD3CB5
:1012B000D10508F082C0C83AD10578F4C53AD10505
:1012C00008F073C0C130D10519F1209709F1C4307D
:1012D000D105F0F4D0E0C0E01BC0C33CD105D0F78D
:1012E000C85AD0E0CC0FDD1FCF5DDE4F0990D8810A
:1012F000C02DD4640DC0C11580E2D80708F0D1C05C
:10130000C11581E0D80708F05AC0C83ED10510F7D2
:10131000CE01DF91CF911F910895C03682E5D807A5
:1013200018F5C03482E5D80708F06BC0C03282E5FA
:10133000D80708F05FC0C11582E5D80708F497C048
:101340002C2F2695269580E2289F900111248C2F22
:101350008370C1E0D0E002C0CC0FDD1F8A95E2F7B8
:10136000C22BD32BDD68D4CFC03A82E5D80760F416
:10137000C03882E5D80708F459C0CF71D0E0DC2F1F
:10138000CC27C46FD06AC4CFC03C82E5D80708F42C
:1013900062C0C03E82E5D80708F09CCFDC2FCC2786
:1013A000CC27DF71C06FD06AB3CFC55AD0E0C25E20
:1013B000DE4FC881D0E0D064ABCFD065A9CF8D2FF0
:1013C0000E946008182FCE0199270E94A308C12F00
:1013D000D0E0DC2FCC27CC27DF71C82BD92B98CFBE
:1013E000CE0199270E94A308CC27DF70C82BD92BE8
:1013F000D06A8ECFCF71D0E0DC2FCC27C16FD06AFE
:1014000087CF2C2F26952695277080E2289F900164
:1014100011248C2F8370C1E0D0E002C0CC0FDD1FFF
:101420008A95E2F7C22BD32BDC6872CF2C2F26953E
:101430002695277080E2289F900111248C2F8370BD
:10144000C1E0D0E002C0CC0FDD1F8A95E2F7C22BCD
:10145000D32BDA685DCF8C2F8F710E946008C82F64
:10146000D0E0DC2FCC27CC27DF71D06251CF8C2F7E
:101470008F710E94600855E0D695C7955A95E1F79F
:10148000CF70D0E0DC2FCC27282F30E084FF05C0C0
:1014900044E0220F331F4A95E1F7C22BD32BD069CA
:1014A00037CF8D2F8F710E946008182FCE0199279A
:1014B0000E94A308C12FD0E0DC2FCC27CC27DF71FE
:1014C000C82BD92BD2CF80910902882331F01092FA
:1014D000090210920802109207020895CF93C82FB4
:1014E0008091D70482FF0CC0809109028C1741F0D3
:1014F0000E9473059093080280930702C09309022B
:10150000CF91089590910902292F282361F08095A9
:10151000892380930902882339F00E9473059093F0
:10152000080280930702089590E080E0F8CF80954C
:10153000909151059823909351050895809590912D
:10154000B80398239093B80308959091B803892B1A
:101550008093B80308951092E6011092E50110926D
:10156000E40108958091DB039091DC03892B89F0DD
:101570000E9473052091070230910802AC01421BC2
:10158000530B81E02091DB033091DC0342175307BA
:1015900008F480E0817008959091E301292F2823B9
:1015A00021F0809589238093E3010895909115019E
:1015B0009923D1F09091D60497FF16C0E82FE695B5
:1015C000E695E695EE31E0F4F0E0E257FE4F282F85
:1015D000277081E090E001C0880F2A95EAF7809596
:1015E0009281892382830895E0E9F1E09191891342
:1015F00003C0DF0111971C9291E0E639F907B1F7BA
:1016000008958091500590910705981301C00895A1
:101610008F5F8770FACFA82FA77023E096958795E4
:101620002A95E1F7FC01EE0FFF1FE80FF91FE60F07
:10163000F71F50E040E080E0219130E00A2E02C028
:10164000369527950A94E2F721703327042E01C0BE
:10165000220F0A94EAF7822B4F5F5F4F4330510508
:1016600059F70895903FB9F0963070F4803198F4AE
:1016700040E1949F9001112466EB71E0820F932F5B
:10168000911D0E940B0B08959C5F923020F463EB38
:1016900071E090E0F6CF80E00895262F277091E06A
:1016A00001C0990F2A95EAF723E0769567952A9568
:1016B000E1F7FB01EE0FFF1FE60FF71FE40FF51F29
:1016C00050E040E0682F70E08191DF0111979B01AD
:1016D000042E02C0369527950A94E2F721702195D1
:1016E0002827292328272C934F5F5F4F433051052C
:1016F00059F70895282F862F903F71F0963068F49F
:10170000203150F430E1939FB0011124620F711D1C
:1017100046EB51E00E944D0B08959C5F9230E0F73C
:10172000622F70E043EB51E0F5CF80931C020895E7
:1017300090911C0221E030E0F90101C0EE0F8A9582
:10174000EAF7D90102C0AA0FBB1F6A95E2F7EA2B9C
:1017500001C0220F4A95EAF7892F8E23E81305C0AE
:10176000292B822F0E94950B089520952923F9CFCC
:1017700021E030E001C0220F8A95EAF720958091A0
:101780001C0282230E94950B08959091E60180959A
:1017900089238093E601282F277069F4891759F06F
:1017A0009091D70492FF07C08695869586950E94F2
:1017B000B80B0E94AB0A089521E030E001C0220F6F
:1017C0008A95EAF780911C02822B0E94950B08955E
:1017D0009091D70492FF10C098E0899F9001112446
:1017E000622B6093E6010E94DC0B0E9473059093CC
:1017F000E5018093E40108950E94DC0B0895809335
:101800001B02089592959F70963091F058F4925F64
:101810009F70923058F4803F19F030F4883E30F4D5
:1018200081E008959A5FF4CF843FD1F380E008957A
:10183000883EB0F3813FD1F7F3CF662309F45DC052
:101840008D3C41F40E94E8078195809356020E94E6
:10185000880708958E3C19F40E94E807F6CF8F3C64
:1018600031F40E94E807819580935502F0CF803DC6
:1018700019F40E94E807F8CF893D29F40E94AF07C8
:1018800080935702E4CF8A3D21F40E94AF078195EF
:10189000F7CF8B3D31F40E94AF07819580935802BA
:1018A000D6CF8C3D19F40E94AF07F8CF9FE2980F76
:1018B000983070F4815D990B21E030E001C0220F77
:1018C0008A95EAF780915402822B80935402BFCF0D
:1018D0008D3D31F480914E02816080934E02B7CFEE
:1018E0008E3D21F480914E028260F7CF8F3D09F04A
:1018F000AECF80914E028460F0CF409155028D3C76
:1019000059F48091560287FF0DC010925602411182
:101910000BC010924C0208C08E3C81F4809156029C
:1019200018169CF3442381F080915702909158023D
:10193000892B09F08CCF10924D0289CF8F3C49F44E
:1019400047FFF0CF10925502809156028111ECCFE3
:10195000E0CF803D19F41416ACF3E4CF9091570218
:10196000893D29F41916F4F610925702DBCF8A3D0F
:1019700019F497FFD7CFF8CF909158028B3D29F4F7
:1019800097FFD0CF10925802CDCF8C3D19F4191685
:10199000CCF3C8CF9FE2980F983090F4815D990BFB
:1019A00021E030E0B90102C0660F771F8A95E2F7A7
:1019B000CB01809590915402892380935402B2CF39
:1019C0008D3D31F480914E028E7F80934E02AACFDE
:1019D0008E3D21F480914E028D7FF7CF8F3D09F02F
:1019E000A1CF80914E028B7FF0CF9C013A952115BB
:1019F0003F4150F5FC01EE27F170BC016627727083
:101A0000AC01442754709C012227387094FF0EC00B
:101A100080E1EF2B09F480E0672B09F08062452B11
:101A200009F08064232B89F08068089581E0EF2B12
:101A300009F480E0672B09F08260452B09F084608F
:101A4000232B19F08860089580E008950F931F9369
:101A5000CF93DF938B01EA019091FD04943061F5FF
:101A60008093E9008FEF9091E800815095FD06C0CA
:101A700095ED9A95F1F700008111F5CF8091E8007E
:101A800085FF1AC00E941A04811111C08091E800DC
:101A900085FD06C08091E8008E778093E800F2CF44
:101AA000F80181918F018093F100219779F780915E
:101AB000E8008E778093E800DF91CF911F910F911E
:101AC000089543E050E0BC0184E00E94260D089593
:101AD00046E050E0BC0184E00E94260D0895CF93BB
:101AE000DF93EC0180911501811111C048E050E0B5
:101AF000BE0181E00E94260D80E2FE01ABEDB4E064
:101B000001900D928A95E1F7DF91CF910895809130
:101B1000D60487FF05C040E284E050E0BE01EACF72
:101B200048E081E0FACF81E08093E00080E280939A
:101B3000D8001092C9008FE19EE40197F1F700C030
:101B4000000087E090EBDC018093520590935305F1
:101B5000A0935405B093550588E19CE00FB6F89426
:101B6000A895809360000FBE90936000FFCF01970F
:101B700008F40895EFE9FFE03197F1F700C00000A5
:101B8000F6CFCF93DF93C5ECD2E060E0CE010E94A8
:101B9000BE352196C11584E0D807B9F7DF91CF9102
:101BA00008950F931F93CF93DF93142F022F82304A
:101BB000F0F461111CC094E0899FE0011124C75525
:101BC000DE4F82E090E0442311F090E080E0632F4C
:101BD0008C0F9D1F0E94BE3583E090E0112311F011
:101BE00081E090E0602F8C0F9D1F0E94BE35DF9139
:101BF000CF911F910F9108951F93CF93DF93122FD1
:101C00008230E0F46630D0F44031C0F490E2699F55
:101C1000E001112450E0440F551FC40FD51F90EC74
:101C2000899FC00DD11D1124632FCE0189960E947A
:101C3000BE35612FCE018A960E94BE35DF91CF91CD
:101C40001F910895CF93C82F6FEF81116FE485E244
:101C500090E00E94BE356FEFC1116FEC86E290E01C
:101C60000E94BE356FEFC1116AE587E290E00E94E5
:101C7000BE35CF9108959B01883070F49AE0899F1A
:101C8000B00111246B527E4F4AE050E0C9010E941E
:101C9000903590E080E008958FEF9FEF0895AAE0DF
:101CA000B0E0E5E5FEE00C9443359C0137552F3F4D
:101CB000310509F068F4BE016F5F7F4F0E943B0E53
:101CC000892B31F489859A852A96E2E00C945F3558
:101CD0008091F1039091F203F7CFFF920F931F933E
:101CE000CF93DF93F42E823040F5611126C024E0BB
:101CF000829F8001112407551E4F82E090E044230B
:101D000011F090E080E0800F911F0E94A035C82F55
:101D1000D0E0DC2FCC2783E090E0FF2011F081E0C1
:101D200090E0800F911F0E94A0359E01282BC901D1
:101D3000CDB7DEB7E5E00C945C3590E080E0F8CFFD
:101D40000F931F93CF93DF93823030F5663020F5E9
:101D5000403110F520E2629F8001112450E0440FD1
:101D6000551F040F151F30EC839F000D111D11240A
:101D7000C80189960E94A035C82FD0E0DC2FCC275F
:101D8000C8018A960E94A0359E01282BC901DF91C7
:101D9000CF911F910F91089590E080E0F8CF462FEA
:101DA000672F20914A0230914B02232BC9F4703FD8
:101DB00039F4403FA9F48091590290915A02089554
:101DC000763038F4403160F4823050F40E94A00E36
:101DD00008957D3F41F4411103C041E0823048F055
:101DE00090E080E008957C3FD9F74111F9CF82302F
:101DF000B8F760E00E946D0E0895CF92DF92FF92D7
:101E00000F931F93CF93DF936C0100911C0280917D
:101E10001B02082BC1E0D0E010E0FC2EC8010C2E04
:101E200002C0959587950A94E2F780FD0FC0CD2BEF
:101E300051F4F12C8F2DDF91CF911F910F91FF90D5
:101E4000DF90CF900895D0E0C0E0E7CFB6018C2FAF
:101E50000E94CF0E0E944509019749F3EBCFCF9323
:101E6000DF93EC010E94FD0EBE010E94CF0E0E9486
:101E70004509DF91CF910895FC018481882371F099
:101E800087819085009729F00E9445090E94020CE5
:101E90000895808191810E942F0FF8CF80E00895EE
:101EA000A6E0B0E0E6E5FFE00C94423549835A83B2
:101EB00049815A819923A1F0222391F0CA010E94FD
:101EC000FD0E182F682F89819A810E947A0B6981F3
:101ED0007A81812F0E94CF0E2696E3E00C945E3526
:101EE000CA010E94320B182FF2CFFC01262F8781E6
:101EF0009085009741F44081518162817381848192
:101F000095810E94500F08950F931F93CF93DF93F5
:101F100009ED13E0C1EBD1E0CE010E94A035F8013C
:101F200061918F01681719F0CE010E94BE3521968C
:101F3000C53DF1E0DF0781F7DF91CF911F910F9150
:101F400008950F931F93CF93DF9309ED13E0C1EB37
:101F5000D1E0CE010E94A035F80181938F01219636
:101F6000C53DF1E0DF07A9F7CAE2D4E0FE018591A3
:101F70009491009711F0FC0109952C96F5E0C6327A
:101F8000DF07A1F7DF91CF911F910F91089585E2AF
:101F900090E00E94A0358F3489F486E290E00E94A0
:101FA000A0358F3C59F487E290E00E94A03591E083
:101FB0008A3509F090E0892F8170089580E0FCCF88
:101FC0009091D70492FB222720F9281779F080FB03
:101FD00092F99093D7046091D6047091D70484E06D
:101FE00090E00E94DC3582E00E94C50B0895DA0182
:101FF0009C012E5F3F4FF90145915491F9012591C4
:102000003491A217B30758F0FC013496859194914E
:102010000E9480350E94840F90E080E008958FEF49
:102020009FEF0895DB01FC01329625913491421710
:10203000530758F0FC01349665917491A901CD01C4
:102040000E94803590E080E008958FEF9FEF089523
:10205000AAE0B0E0EEE2F0E10C94393500E413E0E0
:102060008EE2C82E83E0D82E95E7E92E92E0F92E75
:1020700027E0922E3DE2A32E33E0B32E88248394F2
:10208000D6010D931D936D014AE050E0B701CE01DA
:1020900001960E949035F8013896DF01892D1D9236
:1020A0008A95E9F789819A81D80111969C938E933C
:1020B0008F8112968C9312978D8113968C93139720
:1020C000888514968C931497898515968C9315970B
:1020D0008B819C8117969C938E93169718961C92D1
:1020E00018978A8587FF3CC01E961C921E921D97EA
:1020F00080FF03C0D80118968C9281FF04C0F801BC
:1021000090859260908782FF07C0D80118969C91B5
:102110001897946018969C9383FF04C0F8019085EB
:102120009860908784FF07C0D80118969C911897F3
:10213000906118969C9385FF04C0F80180858062A9
:102140008087015F1F4FFAE0EF0EF11C85ECE81667
:1021500082E0F80609F094CF2A96ECE00C9455350D
:10216000F801B686A586C4CFAAE0B0E0EAEBF0E1BC
:102170000C943D35EDEDF2E080E5DF011D928A958E
:10218000E9F7E4E0F4E088E3DF011D928A95E9F7DE
:102190008DEDC82E82E0D82E7F0105E212E0F70116
:1021A000D182C0824AE050E0B801CE0101960E947F
:1021B000903588E0FE013196D60101900D928A9506
:1021C000E1F789859A85D70113969C938E93129790
:1021D000BAE0CB0ED11CE7E0EE0EF11C065F1F4FFC
:1021E0000537F2E01F07D9F62A96E8E00C94593536
:1021F000ACE0B0E0EEEFF0E10C9439358E010F5F0A
:102200001F4F8CE0F80111928A95E9F797E5E92EC6
:1022100091E0F92E6801AA24A394B12CF7018191D1
:102220007F018F3F09F446C0F894E82FE295EF70E4
:10223000F0E021A18F70A50102C0440F551F8A95BF
:10224000E2F7CA01922F982B91A392A1809589233E
:1022500082A3789400C0EDE5F1E021E030E0912C1C
:10226000812C41914F3F09F467C0A42FA295AF7014
:10227000B0E090968C9190E04F7002C09595879554
:102280004A95E2F780FD58C0C901882A992A220F91
:10229000331F51E0ED36F50721F7F70131978081C3
:1022A0008F3F11F00E94490880EA8A95F1F7F60104
:1022B00091828082F2E0CF0ED11C4DE5E41641E020
:1022C000F40609F0ABCF4CE050E0B8018FE092E0AB
:1022D0000E947335892B99F18CE0F801AFE0B2E0F0
:1022E00001900D928A95E1F781E080930E020E94A1
:1022F000730590930D0280930C0280910C029091D3
:102300000D020E9458050597F0F04CE050E06FE098
:1023100072E08EE392E00E947335892BC9F08CE065
:10232000EFE0F2E0AEE3B2E001900D928A95E1F7C2
:1023300081E010920E0208C090E080E0A6CF80916C
:102340000E028111DACF80E02C96ECE00C9455352A
:1023500080E0EFCFCF938091B80390915105892B06
:1023600080938E0180910902882329F18091DB03FB
:102370009091DC03892B29F00E94B20A81110E94FE
:10238000630A80918E0190910902892B80938E01BE
:1023900080911501882309F447C08091D60487FFF6
:1023A00043C08EE1E0E9F1E090E0815008F03EC0EA
:1023B00091110E94630AC091BF04C09580918E0163
:1023C000C8238091C004C82BC0938E0140E250E026
:1023D00067EE71E08EE891E00E947335892B11F170
:1023E00080E2EEE8F1E0A7EEB1E001900D928A956F
:1023F000E1F7E091CD04F091CE04309799F080910F
:102400001501882349F08091D60487FF05C0C09349
:102410008F0186E080938E010280F381E02D8EE8AB
:1024200091E00995CF91089586E0BCCF21912223B8
:1024300009F4BBCF9F5FB9CFCF93DF93EC01EA855F
:10244000FB85309719F06C857D8509958B810E94FD
:10245000970A8C810E949E0A0E94AA1186E0FE01C2
:1024600011928A95E9F7DF91CF910895CF93DF9389
:10247000EC018D8181FD15C082608D8380915105B5
:102480009B81892B809351058C810E94A50A0E9413
:10249000AA11E885F985309721F06C857D85CE01FC
:1024A00009951092CA041092C9048D8180FD03C061
:1024B000CE010E941C12DF91CF91089580911301EB
:1024C000877F8093130182E00E94970A8091130115
:1024D00084FF06C08F7E8093130182E00E94A50ACC
:1024E0008091130185FF06C08F7D8093130180E2E8
:1024F0000E94A50A0E94AA1108951092B803809123
:102500001501E0E9F1E0882329F18091D60487FFE5
:1025100021C08EE1DF011D928A95E9F790E080E00D
:102520000E94D90590E080E00E94B4051092510508
:102530000E94AA1186E0E3E5F2E0DF011D928A9590
:10254000E9F710924C0210924D0210924E020E9436
:102550008807089586E0DECFAAE2B0E0E2EBF2E180
:102560000C9442358FEF94E02091F100DC012D9323
:10257000CD01B5E087309B07B9F780910005833026
:1025800009F472C0B8F4813009F449C0823009F40A
:10259000B3C08091E80083FF96C28091FF049091C0
:1025A00000059A3008F08FC2E92FF0E0E450FA4CB1
:1025B0000C9426358A3009F48EC08B3009F471C032
:1025C000893039F78091FF04813219F78091030532
:1025D00090910405009711F00297D9F68091E800D8
:1025E000877F8093E8008091E80082FF38C0909157
:1025F000F3008091F200029731F48091F100813074
:1026000011F0863021F48091F1008093DA048091FA
:10261000E8008B778093E8000E944B04BACF80914A
:10262000FF04813A09F0B5CF8091E800877F80935D
:10263000E8008091030590910405892B61F460E224
:102640008BED94E070E00E94F7048091E8008B77B6
:102650008093E8009ECF60E090E080E0F3CF80912F
:10266000FD048111C0CF95CF8091FF04813A09F01C
:1026700090CF8091030590910405892B09F089CFB3
:102680008091E800877F8093E8008091E80080FFD8
:10269000FCCF809115018093F1008091E8008E7746
:1026A000B9CF8091FF04813209F073CF8091030587
:1026B00090910405892B09F06CCF8091E800877F09
:1026C0008093E8000E944B048091010580931501DE
:1026D0000E947D125ECF8091FF04813209F059CFB4
:1026E0008091E800877F8093E8000E944B048091EE
:1026F00002058093D9044DCF8091FF04813A09F0FF
:1027000048CF8091E800877F8093E8008091E800BF
:1027100080FFFCCF8091D904BECF803899F08238F9
:1027200009F0D1C1809103058F70873008F0CBC1CB
:102730008093E9008091EB0085FB882780F9109257
:10274000E90006C08091FB049091FC049111826025
:102750009091E800977F9093E8008093F1001092A9
:10276000F1008091E8008E77AAC1882309F498C10E
:10277000823009F0A8C18091010581119BC180912F
:1027800003058F702FEF280F263008F09CC180932F
:10279000E9002091EB0020FF8DC1933031F480914E
:1027A000EB0080628093EB0085C19091EB0090611B
:1027B0009093EB0021E030E001C0220F8A95EAF708
:1027C0002093EA001092EA008091EB008860EACF43
:1027D000811179C1109101051F778091E300807804
:1027E000812B8093E3008091E800877F8093E8004D
:1027F0000E944B048091E80080FFFCCF8091E300B1
:1028000080688093E30082E0111183E08093FD04EF
:102810005AC18058823008F056C12091010530918C
:1028200002052C3DE3E03E07A1F583E08A838AE2BE
:1028300089834FB7F894DE01139620E03EE051E221
:10284000E32FF0E050935700E49120FF03C0E2959E
:10285000EF703F5FEF708E2F90E0EA30C0F0C796C8
:102860008D939D932F5F243159F74FBF8091E800DE
:10287000877F8093E8006AE270E0CE0101960E94B3
:10288000F7048091E8008B778093E8001CC1C09624
:10289000E7CF8091030590910405432F55274330DE
:1028A000510509F44AC078F54130510509F485C055
:1028B0008BE590E0E0EEF5E04230510509F003C110
:1028C0002091E800277F2093E800209105053091B2
:1028D00006058217930708F49C0140E02115310595
:1028E00009F070C041116EC08091E80082FDC9CF2F
:1028F0008091FD04882329F2853019F28091E80047
:1029000083FFF2CFBECF4132510509F447C04232B6
:10291000510509F0D8C08330910508F0D4C0FC01FE
:10292000EE0FFF1FE058FE4F0190F081E02D83581D
:102930009E4FDC018C9190E01DC033272130310582
:10294000E9F02115310579F022303105F9F0233015
:10295000310509F0B8C0EDE4F6E0E4918E2F90E087
:10296000EDE4F6E007C0EFE8F6E0E4918E2F90E0AA
:10297000EFE8F6E0009709F4A6C0A2CFEDE7F6E095
:10298000E4918E2F90E0EDE7F6E0F4CFEBE6F6E091
:10299000E4918E2F90E0EBE6F6E0ECCF83309105EA
:1029A00008F091C0880F991FFC01EA57FE4F019073
:1029B000F081E02D89E090E083CF82E190E0EBE3CD
:1029C000F6E07ECF8091FD04882309F45ACF85304C
:1029D00009F457CF8091E80083FD53CF8091E80040
:1029E00082FD82CF8091E80080FF78CF9091F30044
:1029F0008091F2002115310519F08830910550F0D1
:102A000041E0089709F040E08091E8008E778093DC
:102A1000E80064CF44914093F10031962150310990
:102A20000196E8CF803809F04EC08091E800877F9A
:102A30008093E8008091FE048093F10092CE811192
:102A400042C0109101051230F0F58091E800877FB7
:102A50008093E8001093FE040E944B04112311F0B0
:102A600084E005C08091E30087FDFACF81E0809388
:102A7000FD0442E061EC81E00E946A0442E261EC04
:102A800084E00E946A0442E261EC82E00E946A04EF
:102A900042E260EC83E00E946A048091FD0413C06E
:102AA00080910105813079F481E0933009F080E074
:102AB0008093FC041092E9008091E800877F809366
:102AC000E8000E944B048091E80083FF0AC08091D7
:102AD000E800877F8093E8008091EB00806280931C
:102AE000EB00AA96E3E00C945E35E9EDF3E0128E7C
:102AF000138E8FEA90E09183808325E0248F88E80D
:102B000093E1938382838AE090E09583848344E118
:102B100050E05783468348E050E0518740879387D1
:102B200082876EE170E0758764879787868780E586
:102B300090E0918B808B538B428B48E250E0558B19
:102B4000448B42E350E0578B468B48EC50E0518F6A
:102B5000408F158E178E168E91A380A322A30E94FC
:102B6000840F0E947D121092D7041092D604E7EDD4
:102B7000F4E08081846080836091D6047091D704F2
:102B800084E090E00E94DC350E94A10F0895AEE140
:102B9000B0E0EDECF5E10C9435356090B104709047
:102BA000B20481E090E09093B2048093B10410E00D
:102BB00000E09CEDA92E95E0B92E2EED822E25E0A9
:102BC000922E8CE1E82E85E0F82E512C19C00115CB
:102BD0001105C9F4F60125913491442D652D80E04D
:102BE0000E94FC0D82E0C80ED11C4394E0E14E121D
:102BF000EECF5394F0E2EF0EF11C86E05816F9F098
:102C00006701412CE4CF21E030E0442D652D81E0C7
:102C1000E7CFF5012591349141E060E080E00E942A
:102C2000D10DF4012591349140E060E080E00E94F4
:102C3000D10D0130110599F001E010E0C2CF01156E
:102C4000110539F321E030E041E060E081E00E94CD
:102C5000D10D21E030E040E060E081E0E8CF0E946B
:102C600075151A8219821C821B821E821D8218868B
:102C70001F8288EC90E09A87898705ED11E04AE091
:102C800050E0B801CE0101960E94E235065F1F4F69
:102C90000532E2E01E0799F77E01FBE0EF0EF11C22
:102CA0008AE0F70111928A95E9F74AE050E0B8010D
:102CB000C7010E94E235065F1F4F0537F2E01F078C
:102CC000A1F77E0185E1E80EF11C8AE0F70111927F
:102CD0008A95E9F78FEF9FEF9A8F898F87E08E8F24
:102CE0004AE050E0B801C7010E94E235065F1F4F7D
:102CF000053CF2E01F07A1F77092B2046092B104A4
:102D00006E96E0E10C94513580E00E94220E60E066
:102D100088E290E00E94BE350E94C7150E94C10D56
:102D200081E00E94220E0895CF92DF92EF92FF92EF
:102D30008FEF9FEF4430510508F46CC0FB01C08059
:102D4000D180E280F3800E947D128091D604C0FA87
:102D500080F9B701A601769567955795479540FB91
:102D600081F9B701A60122E07695679557954795B9
:102D70002A95D1F740FB82F9B701A60133E0769599
:102D80006795579547953A95D1F740FB83F9B70179
:102D9000A601E4E07695679557954795EA95D1F7B2
:102DA00040FB84F9B701A601F5E076956795579544
:102DB0004795FA95D1F740FB85F9B701A601A6E042
:102DC0007695679557954795AA95D1F740FB86F973
:102DD000B701A601B7E07695679557954795BA95DF
:102DE000D1F740FB87F98093D6048091D704D0FABD
:102DF00080F9D1FACC24C0F8C0FA81F98093D704C5
:102E00006091D6047091D70484E090E00E94DC3594
:102E100090E080E0FF90EF90DF90CF9008950E94C7
:102E20007D122FEF84E39CE0215080409040E1F739
:102E300000C0000088E19CE00FB6F894A89580934C
:102E400060000FBE90936000FFCF882321F00E94A6
:102E5000970A0E94AA110895882339F0909151058C
:102E6000982B909351050E94AA110895882321F070
:102E70000E949E0A0E94AA110895882321F00E94B0
:102E8000A50A0E94AA110895882381F19CEF980F4A
:102E9000913A28F40E94D60A0E94AA11089590E25D
:102EA000980F983050F4877091E001C0990F8A957F
:102EB000EAF7892F0E949E0AEFCF9BE5980F933087
:102EC00028F490E080E00E94D905089598E5980FD5
:102ED0009B3128F490E080E00E94B405089593E3CC
:102EE000980F933118F460E00E941D0C0895FF9232
:102EF0000F931F93CF93DF93F82E0091C40410918A
:102F0000C5040115110509F449C01092C3041092BB
:102F1000C2041092BF041092C004D8011696CD913D
:102F2000DC919E013A9521153F4108F4D07ED1E015
:102F3000C11101C0D0E0D8011996ED91FC911A970A
:102F4000309731F01B966D917C9180E00995D823E4
:102F5000DD2339F08CEF8C0F813A30F58C2F0E94F5
:102F6000D60AFF2099F0E091C404F091C504808551
:102F700084FD0CC08091C104882341F0808191813F
:102F80009C01215031092F333E47A0F00E94AA1125
:102F90001092C5041092C4041092C104C801CDB7A8
:102FA000DEB7E5E00C945C350E94AA118C2F0E94DC
:102FB0004417D7CF0E940B06E9CFCF93DF93EC01E4
:102FC0000E944417CE010E94F50C9E01205E31093B
:102FD0002830310510F0CD2B29F40E943617DF91EF
:102FE000CF9108950E942517FACFCF93C82F882339
:102FF000C1F18CEF8C0F813AB0F5809115018823D7
:1030000001F18091D60487FF1CC0EC2FE695E69570
:10301000E695F0E0E257FE4F828190E04C2F47703A
:1030200021E030E002C0220F331F4A95E2F78223ED
:103030009323892B79F08C2F0E94D60A0E94AA1123
:1030400009C0E0E9F1E08191C817A9F381E0E63910
:10305000F807C9F76C2F8EE891E00E947F050E9467
:10306000AA11CF91089580E28C0F883048F4C77080
:1030700081E001C0880FCA95EAF70E94A50AEFCF48
:10308000EBE5EC0FE33040F4F0E0E25EFE4F8081D0
:1030900090E00E94D905E5CFE8E5EC0FEB3150F464
:1030A000F0E0EE0FFF1FEF5DFE4F808191810E94E7
:1030B000B405D7CF83E38C0F833198F661E08C2F72
:1030C0000E941D0CCECF1F93CF93DF93182FC0917A
:1030D000F903D091FA03893321F0C091F703D0911D
:1030E000F803812F0E94F517209739F4812F0E9451
:1030F0004417DF91CF911F9108958FE99FE00197C9
:10310000F1F700C000002197EFCFB0E0A0E0EBE8BE
:10311000F8E10C943B35EC018AE0A82E28812223AB
:1031200009F48FC02130C9F599818A81913021F449
:1031300022960E94631805C0923029F422960E94BC
:10314000F5172196EBCF933021F422960E94441775
:10315000F8CF943011F02196F4CF229630E020E0A1
:10316000AE014F5F5F4F8053990B8A30910550F04D
:103170002150310930F38FE99FE00197F1F700C04A
:103180000000F6CFA29EB001A39E700D11249C01F9
:10319000260F371F8981EA01E3CFE22FF0E0ED53DC
:1031A000F94FB490822F86958695869590E0FC0124
:1031B000ED54F94FE4902770F12C022E02C0F594E3
:1031C000E7940A94E2F731E0E322FF24FC01ED5595
:1031D000F94FC490D12C022E02C0D594C7940A9402
:1031E000E2F731E0C322DD24FC01ED56F94F0491F2
:1031F00010E002C0159507952A95E2F70170112796
:10320000E114F10419F081EE0E94F517C114D10404
:1032100019F086EE0E94F5178B2D0E946318C114D9
:10322000D10419F086EE0E944417E114F10419F05C
:1032300081EE0E9444170115110509F482CF8CE23A
:1032400078CFCDB7DEB7EAE00C945735B0E0A0E018
:10325000ECE2F9E10C943B357C015B01C42FD22FE9
:10326000FC0185818823A9F04093C8040E9473055E
:103270009093C7048093C604C77081E001C0880F93
:10328000CA95EAF70E943D17CDB7DEB7EAE00C9485
:1032900057351091C804141338C08091C60490911A
:1032A000C7040E9458056C01B701C5010E944F0E6A
:1032B000C816D90650F5C0E2CD0F1D17C1F080E247
:1032C000810F883048F4177081E0012E01C0880F0B
:1032D0000A94EAF70E943617C83048F481E09D2F1F
:1032E000977001C0880F9A95EAF70E943D17802FCA
:1032F0000E946318C83040F6D77081E001C0880F83
:10330000DA95EAF70E943617BFCFC77081E001C097
:10331000880FCA95EAF7F6CFCF93DF93EC010E94AE
:10332000F50C9E01205E31092830310510F0209700
:1033300041F40E943D178C2F0E94F517DF91CF9129
:1033400008950E942C17F7CF662329F0209151058C
:103350002260209351059C0130522115304308F41E
:1033600099270E948C190895B0E0A0E0EAEBF9E1FA
:103370000C943D356C018B01E42E8091130182FF8A
:1033800087C0C091FF03D0910004CC15DD0521F06A
:10339000C114D10409F07CC0809113018B7F80930C
:1033A000130181FD6EC08091FD039091FE03A80181
:1033B000481B590B81E020911101309112014217F5
:1033C000530708F480E08170F82E80911301F0FA21
:1033D00081F980931301FE0183E0F695E7958A95C4
:1033E000E1F7EE71FF27E754FC4F20813181AE01F8
:1033F0004F70552781E090E002C0880F991F4A95D1
:10340000E2F7FF2009F43FC0822B932B9183808346
:103410008091B80381FF08C080911301806180937F
:10342000130182E00E949E0A8091B80385FF08C0C4
:103430008091130180628093130180E20E949E0AB2
:103440006F2DCE010E94A419EE2031F08091F4037B
:1034500085FF02C086FF30C08091F7039091F8038A
:103460000E94B70D8091FF03909100049C0130529F
:103470002115304308F499270E94DD170E945E123F
:1034800017C081E0A0CF8095909582239323BECF73
:10349000C601905281159043A0F4C60199270E945D
:1034A000DD178091FF03909100048C159D0531F389
:1034B0001093FE030093FD03CDB7DEB7E8E00C9454
:1034C0005935C601ECCFA7E0B0E0E9E6FAE10C948B
:1034D00033357C01DC0114968C91882309F45AC1A0
:1034E00061E0C7010E94750F8C01F7018581882377
:1034F00009F18091C9049091CA040097D9F0081786
:103500001907C1F0FEE08F9FC0011124FC01EE58A5
:10351000FD4F20812460208383599D4FDC010D9352
:103520001C930E9436121092510561E0C7010E945F
:10353000750F8C01F7018581882309F4B1C0C8019A
:1035400097578038910508F0DDC0D02EFFE0F017C6
:1035500008F410C18FEF93E00E94A03581110AC1D9
:1035600005EC12E0D11036C019821A821B821C822F
:1035700099249A9468013FEFC31AD30AC8010E94A4
:10358000A03589831A82882309F4F4C0813009F0B8
:1035900081C0580142E0A40EB11CC6010E94A035B2
:1035A000C82E8A83882309F4E5C0C5010E94A0358E
:1035B000D82E8FEF8C0D8330D8F4580153E0A50E30
:1035C000B11CDB82DD2021F0CE0101960E9485181E
:1035D0008501D0CF011524E0120709F4CBC0C80142
:1035E0000E94A035811101C0DA940F5F1F4FBACF3E
:1035F0008BEF8C0D833030F5C8010396DB825C01C4
:10360000DD2031F35801A4E0AA0EB11C0E94A035C0
:103610008C838823E9F28B819C818130BFEF9B07EB
:1036200010F0982F8827E6E0CE1631F0F7E0CF169D
:1036300031F00E94BE29CCCF0E949929C9CF0E94A7
:103640002029C6CF24E0C212C3CF580134E0A30E14
:10365000B11CC80103960E94A035DD2009F48AC080
:10366000882309F487C08150990B989E9001999EF8
:10367000300D11244D2D4150550BCA01820F931F5F
:10368000019708F4A5CFAFE9BFE01197F1F700C0AB
:103690000000F6CFCE0101960E948518560198CF02
:1036A0006801E7E5DE1AFFEFCF16D10409F050F507
:1036B00063E672E08C2D0E943B0E892B19F58EE09B
:1036C0008C9DF0018D9DF00D1124E359FD4F8281F9
:1036D0008130A1F58091630290916402892B91F071
:1036E0008091650290916602892B61F0809167025A
:1036F000909168022091690230916A02822B932B8B
:10370000892B21F1D70115965C90552009F446C00C
:103710000E35BCE71B0759F10F35ECE71E0741F0EA
:103720000D35FCE71F07D1F5809100018823F9F0E2
:103730001092000180E00E9477171CC0823011F7C0
:103740008091670290916802892BE1F22EE02C9D16
:10375000C0012D9D900D1124FC01EE58FD4F2081DC
:103760002E7F208383599D4F0E943612CBCF81E05C
:10377000809300018091E601877061F0D701159672
:103780008C91882339F08091D70482FF03C082E0B6
:103790000E94C50B2796E2E10C944F358091000101
:1037A000882309F457C6480120EE821A91084090F8
:1037B00009028091E301482A8091B803482A38E041
:1037C0008316910408F086C098012770332781E0A2
:1037D00090E001C0880F2A95EAF7552009F477C0D8
:1037E000482AD7018D919C910E94320B21E030E054
:1037F000390102C0660C771C8A95E2F7E091C40497
:10380000F091C504FF83EE832090AE013090AF01AC
:103810001D822D81E22FF0E0EE0FFF1FE25DFC4FD5
:10382000C080D180C114D10409F478C6411005C00C
:10383000D60112968C91811189C0F601838190E0A6
:1038400086219721892B09F481C08085982F977054
:1038500009F487E0F8E08F16910408F055C0552070
:1038600009F44EC086958170882309F46FC0D60193
:10387000AD90BC900A151B0519F4552009F466C0DB
:10388000EE81FF81CE16DF0609F460C0D6011D96D9
:10389000ED91FC91309721F08081882309F456C086
:1038A000642DC6010E945C06882309F44FC00A15E6
:1038B0001B0509F09CC60115110509F49DC65110A0
:1038C0009DC6A214B30409F041C0512C97C680953F
:1038D000482287CF552009F40AC61093AF01009300
:1038E000AE010E9467056093BB047093BC04809393
:1038F000BD049093BE041092C3041092C20471CF11
:1039000082FB882780F9B0CF552001F18170ACCFC0
:103910000E94441791C60497813A910558F46A2D84
:103920008EE891E00E947F05552009F493C50E941E
:10393000AA1120CF0E94AA118FE39CE90197F1F709
:1039400000C000008A2D0E94F517EECF9D819F5F79
:103950009D835FCFFC01208131810217130709F09D
:1039600072C5511072C51092C10480E00E94771791
:1039700071C5902F812FB6C5F901858181FFE2C500
:10398000C9010E941C12DEC590911301892F8E7F00
:1039900090FF8160809313010E945E12FFC58091A9
:1039A00013018E7FF7CF809113018F7E013E1105A9
:1039B00031F0053E1105E9F4809113018F7D80936C
:1039C00013018091130180FF29C0D70115968C91B6
:1039D0000832110570F50E31110508F07BC0043076
:1039E0001105C8F58823D1F0109200041092FF034E
:1039F00015C0C80190528115904318F780911301AA
:103A000082FF0CC08091F60381FD08C02CE232E0F9
:103A100040E0B60190E080E00E94B419F801E8515E
:103A2000FC47E730F10508F0C3C5EA5FF94C0C9498
:103A300026350933110558F40D32110518F40B32EF
:103A4000110581F69091F40392FDCCCF08C00436A5
:103A50001105C1F3C7CF9091F40394FDC3CF882320
:103A600009F4A8C0809109029091B803892B8D7F39
:103A7000B1F1109200041092FF038091F40381FDD4
:103A80002EC0F80143E0F695E7954A95E1F7EE710F
:103A9000FF27E754FC4F98012F70332781E090E017
:103AA00002C0880F991F2A95E2F780959095208192
:103AB0003181822393239183808360E0C8010E9437
:103AC000A419809109028D7F0E946E0A82E00E94F3
:103AD000C50B50CE9091F40393FD84CFC0CF89E005
:103AE000F701ACE2B2E001900D928A95E1F71092F5
:103AF000310210922F0210922E028091FF039091BA
:103B0000000408171907D1F52091F40325FF36C0EA
:103B10003091130131FF02C026FF30C02091FD0318
:103B20003091FE035601A21AB30AB7010E944F0E4C
:103B3000A816B90618F58091B80381FF08C08091D6
:103B4000130180618093130182E00E949E0A80919C
:103B5000B80385FF08C08091130180628093130130
:103B600080E20E949E0A60911301669561708091C7
:103B7000FF03909100040E94A419FCCD80910902DA
:103B80009091B803982B2091130191FB21F9209378
:103B900013018D7F0E946E0A109300040093FF03AF
:103BA000D092FE03C092FD03809113018460809344
:103BB00013018CCF970140E0B601C8010E94B419EF
:103BC000D9CD06E221EE41EE6AE17CE7C7010E9411
:103BD0002619D0CD07E225EE45EE6BE17CE7F6CF66
:103BE00006E221EE40EE68E17CE7F0CF07E225EE49
:103BF00044EE69E17CE7EACF06E221EE42EE6CE1B9
:103C00007CE7E4CF07E225EE46EE6DE17CE7DECF10
:103C100008E221E045EE6EE17CE7D8CF8091D60442
:103C200081608093D60495C08091D704886080938A
:103C3000D7048FC08091D6048260F3CF8091D604E0
:103C40008460EFCF8091D6048860EBCF8091D70459
:103C50008160EDCF8091D7048260E9CF8091D60456
:103C60008061DFCF8091D6048062DBCF8091D60463
:103C70008064D7CF0E947D128091D6048068D1CF16
:103C80008091D6048C60CDCF8091D7048360CFCF54
:103C90008091D6048E7FC5CF8091D704877FC7CF10
:103CA0008091D6048D7FBDCF8091D6048B7FB9CF14
:103CB0008091D604877FB5CF8091D7048E7FB7CF10
:103CC0008091D7048D7FB3CF8091D6048F7EA9CF0A
:103CD0008091D6048F7DA5CF8091D6048F7BA1CF14
:103CE0000E947D128091D6048F779BCF8091D6045D
:103CF000837F97CF8091D7048C7F99CF8091D60412
:103D000082FB992790F921E0922790FB82F990FBA2
:103D100083F987CF8091D704982F909591708E7FEB
:103D2000892B90FB81F983CF9091D604892F8F7BCB
:103D300096FF806476CF0E947D129091D604892FE1
:103D400097FB87F980586DCF61E08EE090E00E948C
:103D5000BE356091D6047091D70484E090E00E9453
:103D6000DC350E947D1206CD60E0EFCF9091D60445
:103D7000892F8F7E94FF806154CF9091D604892F34
:103D80008E7F90FF81604DCF9091D704892F877FE0
:103D900093FF88604CCF0631FCE71F07B9F580918F
:103DA000B803982F9A7A3091F30330FF04C0482F5C
:103DB000447409F090E031FF04C0482F417109F0CC
:103DC00090E032FF04C0482F487809F090E033FFBC
:103DD00003C0827209F090E0222371F081E091111A
:103DE00001C080E08093B00169E2911165E38EE843
:103DF00091E00E947F059BCD8091B001811104C0AC
:103E000089E20E94D60A93CD85E3FBCF07373CE7D2
:103E1000130709F458C008374CE7140709F45EC0CB
:103E2000222381F003305CE7150709F477C008F01E
:103E30005AC001159CE7190709F463C001301C47FB
:103E400009F472C0F70187819085009709F47AC060
:103E50000E944509182F092FF701C580B680B2943A
:103E60003FE0B3228091E6018770F1F0AC2CCC20CA
:103E7000E1F0892F807F803451F080E2810F88301B
:103E800098F0B11004C0892F807E803269F0809153
:103E9000D70482FF09C082E00E94C50B8091E60131
:103EA0008770AA24A3948111A12C902E92942FE0C4
:103EB0009222FBE0F91508F4D5C0E92DF0E0E35FAC
:103EC000F94C0C94263581E0222351F00E94DC0B42
:103ED00043E062E081E00E94980B4CCC82E0F4CF9A
:103EE0000E94B80BF5CF0B35BCE71B0749F10C3529
:103EF000ECE71E07D9F00A351C4709F0A3CF81E093
:103F00001CC00E947D122FEF34E34CE02150304062
:103F10004040E1F700C000000E94930D6FEF7FEF7B
:103F200090E080E00E94DC350E940F178091D7045A
:103F300082FB882780F991E089270E94E00F82CFD9
:103F400080E0FBCF858100811181882369F0C80161
:103F50000E94FD0ED82E682FC8010E947A0BB8016E
:103F60008D2D0E94CF0E74CFC8010E94320BD82E27
:103F7000F6CF202F2F70D22E802F807F19F0D29471
:103F800090EFD922CC20A9F0DD2059F080E2810FFA
:103F9000883010F0111107C08D2D0E94A50A0E94D3
:103FA000AA11812F5DC080915105D82AD092510568
:103FB000F6CF812F0E944417DD2009F453C080E220
:103FC000810F883010F0111104C08D2D0E949E0ABF
:103FD00003C08D2D0E94970A0E94AA1143C0302F62
:103FE0003F70D32E802F807F803219F0D29480EFE3
:103FF000D822112339F1113009F4B6C0CC2009F4CC
:10400000C2C0BB2009F466C020E0D7014C911196D4
:104010005C91119712966C91129713967C9113975D
:1040200014968C91149715969C910E94500F809134
:10403000F60381FDB6CFF701868180FFB2CF8F7086
:10404000868348C08091D70482FD40C0CC20C1F156
:10405000DD2029F08D2D0E94A50A0E94AA1180E082
:104060000E94F517A92DA850BB0B149710F40E94BD
:10407000FE05812F902F0E94020C8111C4C1109265
:10408000B2011092B101AA20B1F08091E60180FD49
:1040900012C0D70115961C928695869586950E942A
:1040A000DC0BC7010E94631A8091E6018695869514
:1040B00086950E94B80B60E0C7010E94750F6ACB1D
:1040C00080E00E944417DD2069F27FCFCC2091F17F
:1040D000B11004C08D2D0E943D17C4CF41E0B41231
:1040E00011C0809009028D2D8821D81609F4BACF0D
:1040F0000E9473059093080280930702D828D092FB
:104100000902B0CF8091F503823008F4ABCFB8122A
:10411000A9CF8D2D0E943D178D2D0E94820A80917E
:10412000E3019D2D9823D91609F49CCFD82AD0926B
:10413000E30198CFB1100AC08D2D0E9436178D2D46
:104140000E94820A8D2D0E94CC0A8CCF8091F503AB
:10415000823008F487CF51E0B51284CF8091B80344
:104160008D2109F47FCFE8CF8091FB03CC2021F093
:104170008B1508F477CFAECFB81608F073CF8D2D1E
:104180000E9436176FCFBB20D1F38091F903909135
:10419000FA03193321F08091F7039091F8030E94FC
:1041A000B70D812F0E9444175DCF802F869586958D
:1041B000837069F0813009F055CF812F902F937073
:1041C000C11002C080E090E00E94B4054BCF812F67
:1041D000902F9370C11002C080E090E00E94D9053A
:1041E00041CF6C2D812F0E941D0C3CCF802F8370FE
:1041F00091F5C11037CF412F429546954770440F36
:10420000440F812F8F70042E01C0880F0A94EAF7A3
:10421000212F207114FF07C02FE030E001C0220FD2
:104220004A95EAF72095302F36953695337032301F
:1042300069F050F440911B02313029F0822B842325
:104240000E94FF0B0FCF842B822BFACF282B80915B
:104250001B028227F5CF8695CC2011F0802F81702C
:10426000882309F4FFCE412F429546954770440FAD
:10427000440F812F8F70042E01C0880F0A94EAF733
:10428000212F207114FF07C02FE030E001C0220F62
:104290004A95EAF72095302F3695369533703230AF
:1042A00069F050F440911C02313029F0822B8423B4
:1042B0000E94950BD7CE842B822BFACF282B80918E
:1042C0001C028227F5CFF02FFF70DF2ECC2029F0C3
:1042D0008F2F0E94DC0B812FFECE812F0E9436177C
:1042E0008D2D0E94B80BBECE123F89F160F4103FB5
:1042F000B9F0113F81F0CC2009F480C0B11051CE4B
:10430000802F8F7128C0133F49F1143FA1F780918E
:10431000D70482FD2FC0802F8F71CC2011F31BC0DA
:104320008091FB03CC2079F0B81608F09BCE202FAB
:104330002F7181E090E001C0880F2A95EAF79091F3
:104340001C028927B5CF8B1508F48CCEF0CF802FB7
:104350008F71C110C6CF0E94DC0B84CE80E0CC20D0
:1043600009F4A6CF81E0902F9F7101C0880F9A9524
:10437000EAF79ECF8091F503823040F1CC20D1F056
:104380009091E6019770943041F40E94AB0A802F1F
:104390008F710E94B80BA12C65CEB816E0F7202FC4
:1043A0002F71D22E822F0E94DC0B63E08D2D0E9494
:1043B000E80BF1CFB81630F00E94AB0A64E0802F12
:1043C0008F71F5CF81E00E94C50BE5CFCC2059F06D
:1043D000302F3F71D32E832F0E94DC0B63E08D2D95
:1043E0000E94E80B3FCE81E00E94C50B41E04B15D7
:1043F00008F038CE82E00E94C50B34CEB110C5CE95
:10440000802F8F716ECFCC2019F0B11038CE3BCEFB
:10441000B11035CE20E0F701408151816281738176
:10442000848195810E94500F8091F60383FF27CEEF
:104430008091B1019091B201029709F020CE812FB5
:104440000E9463181CCE552029F0DC0118968C912F
:1044500085FF8BCAC80197558F3F910511F008F071
:1044600071C05801BB24BEE00B9FF00111249F01D5
:1044700023593D4F6901D70115968C91EE58FD4F98
:10448000908180FB90F99083882309F475CA0E947B
:10449000730590932B0280932A02F60182818F5F2D
:1044A0008283809151059091B803892B83838091F9
:1044B000090284830680F781E02D309731F0D60120
:1044C0001C966D917C91C60109958EE08A9DF00144
:1044D0008B9DF00D1124E359FD4F858181FF49CA61
:1044E00090E080E09093C9048093CA042BC080912F
:1044F000AE019091AF010817190781F41092AF0136
:104500001092AE011092BB041092BC041092BD0434
:104510001092BE041092C3041092C2048091C4048D
:104520009091C504009709F495CFA8E08A169104EC
:1045300008F010CA642D0E945C06811103C081E05E
:104540000E9477178091F40380FF68CA0E94730568
:104550006C01D70115968C91882309F424CA8091A7
:10456000130182FF08C02CE232E040E0B60190E087
:1045700080E00E94B4190431BCE71B0709F40FCA9C
:104580000531ECE71E0709F4FFC90331FCE71F07FB
:1045900029F480911301816080931301C801905226
:1045A0008115904308F00DCA109200041092FF0389
:1045B000F7012581222309F4EECB1092C804C8012B
:1045C0009057839708F0E7CB84E090E00E94A835ED
:1045D0009093D7048093D604F801E150F047E2327B
:1045E000F10508F01BCBE75EF94C0C942635A114BD
:1045F000B10409F066C9512CB12CA12C80E00E94B5
:104600007717D092C504C092C40481E08093C1049E
:10461000F60185818093BF0451100EC0AB2861F074
:10462000F601808191819C0124503109213A3105A4
:1046300008F06EC90E94D60AD6011696AD90BC90BD
:10464000C5019A9581159F4110F4E0EEBE227724B2
:104650007394C50101978F339E4708F0712CD601E2
:104660001996ED91FC911A97309731F01B966D9148
:104670007C9181E009957822772079F0F601868196
:1046800097810E94F50C8093C004C501F8E08F1655
:10469000910408F040C90E940B060E94AA1144C967
:1046A000B0E0A0E0E6E5F3E20C943E358091E00155
:1046B000807F09F054C08091DF01882309F44FC046
:1046C000E091500589E0D82E809107058E1709F4F6
:1046D00046C00E2F10E0ED9DF0011124E85FFA4F67
:1046E0008481882309F440C0D09EE001D19ED00D82
:1046F0001124FE01E85FFA4F91818091DB0198134C
:1047000033C090818091DA0198132EC08581811188
:104710002BC0E280F3808091DC019091DD01E81AEA
:10472000F90A60E08AED91E00E94750F6AED71E090
:104730000E944F0EE816F906B8F48091E0018F70E0
:1047400080618093E001C25FDA4F88818F70806161
:1047500088838AED91E00E94631A0E94010BCDB715
:10476000DEB7E7E00C945A35F8013196E770ACCF2C
:10477000A8E1B0E0EEEBF3E20C9436358C0186E074
:10478000F801DE01539601900D928A95E1F7D80168
:1047900014967C9014971596EC908AEDA82E81E0E3
:1047A000B82E8091DE0181112AC0711003C0FF2450
:1047B000F3941CC0EE20F9F0C8010E943C0FF82EC3
:1047C0008823C9F089E0F801AAEDB1E001900D92CB
:1047D0008A95E1F78091DE01813031F48091DA0130
:1047E0009091DB010E942F0F0E9450238F2D68961D
:1047F000EFE00C945235C8010E94631AD8CFF8013B
:1048000050806180C280D38060E08AED91E00E9498
:10481000750FF090DF018091DC019091DD01460180
:10482000881A990A60E08AED91E0FF2009F428C116
:104830000E94750F6AED71E00E944F0E881699066E
:1048400008F0D1C0772009F4B2CF8091E001382F71
:10485000307F2091DB01D80111969C911197311185
:1048600071C029131FC02091DA019C9129131AC02D
:104870004091E1015091E20117962D913C91421730
:10488000530781F4E11054C08F7080618093E00180
:104890008AED91E00E94631A8091E001F80186831D
:1048A000F12CA4CFE11044C0662D852D0E94DC03BD
:1048B000E82E882381F08091F60380FFF1CF8AED06
:1048C00091E00E94631A89E0EAEDF1E0DF011D92B8
:1048D0008A95E9F7E5CF5B8A6C8A8B899C890E946F
:1048E0002F0F292F22952F70243058F49F702230DB
:1048F00088F0992399F0F8019681907F79F4FE2C45
:1049000075CF2A5F2F70223068F0C8010E94631AA9
:10491000EF2CF5CF992311F0882389F3805E88303E
:1049200070F3F3CF803F58F3815F833070F7E7CFA8
:104930008091E00181608093E0018091F60381FD28
:10494000AFCFBDCF291320C02091DA019C9129134C
:104950001BC04091E1015091E20117962D913C91CD
:1049600018974217530781F4E1100EC016968C93E6
:10497000C8010E94631A89E0F801AAEDB1E0019034
:104980000D928A95E1F732CFC8010E943C0F88232F
:1049900009F431CFEE2009F42ECF8091E00180326E
:1049A000B8F02091DA013091DB013B872A87DD8660
:1049B000CC869091DE019E871F86888B8091E101D5
:1049C0009091E2019A8B898BCE010A960E94631A1C
:1049D00089E0F801AAEDB1E001900D928A95E1F726
:1049E0000E945023E4CE8091E001982F907F09F43B
:1049F00066CF772009F4DBCE2091DB01F8019181AD
:104A000029131AC02091DA019081291315C0409111
:104A1000E1015091E201278130854217530761F48B
:104A2000E1100AC08683C8010E94631A89E0D5019B
:104A30001D928A95E9F7DACEC8010E943C0F8823BF
:104A400009F4D9CEEE2009F4D6CE8091E00180326F
:104A500008F4BECF2091DA013091DB013A8329833B
:104A6000DC82CB829091DE019D831E828F838091B8
:104A7000E1019091E20199878887CE010196A6CF46
:104A80000E94750F6AED71E00E944F0E881699061C
:104A900008F04AC0772009F48ACEFE2CEE2009F4F3
:104AA000AACE9091DB01F801818198132FC09091DB
:104AB000DA01808198132AC02091E1013091E2014E
:104AC000878190852817390709F58091DC0190913D
:104AD000DD01C81AD90AF8ECCF16D10408F04BCF83
:104AE0009091E00190FD47CF907F09F444CF8091F1
:104AF000E001D80116968C931697903F09F438CFB1
:104B0000982F907F905F8F70892B30CFC8010E94C3
:104B10003C0F81115DCF8091E00181608093E001C5
:104B2000C8010E94631A62CE89E0F50111928A954C
:104B3000E9F75CCEA2E1B0E0E0EAF5E20C944135A1
:104B40000A871B872C873D874E875F87688B798B09
:104B50008A8BCE010A960E94B82381110CC089E08D
:104B6000FE013A96DE01119601900D928A95E1F7C9
:104B70008E8581110BC019E0809150059091070539
:104B8000891331C06296E4E00C945D3520910705ED
:104B900030E0C90101968770992740915005481768
:104BA000190699F099E0929FD001939FB00D1124BE
:104BB000A85FBA4FFE01319601900D929A95E1F7E8
:104BC000809307050E94010BD6CF0E947D121092A0
:104BD00007051092500589E0EAEDF1E0DF011D9232
:104BE0008A95E9F7C8CF819FC0011124885F9A4F49
:104BF0000E94B823882331F28091500590E00196FD
:104C00008770992780935005B7CFEF92FF920F934B
:104C10001F93CF93DF9380913C04882361F0E09150
:104C200003048DE0F82E80913C04E81748F01092C0
:104C30003C0410920304CDB7DEB7E6E00C945B357C
:104C4000EE24E394EE0EE0920304CE2FD0E0EF9D2D
:104C5000F0011124E35CFB4F84818823E9F0878114
:104C60009085892B21F481859285019659F40081E4
:104C700011812281338144815581668177818085CC
:104C80000E949A25FC9EF001FD9EF00D1124E35C2C
:104C9000FB4F148210925105EE2DC5CF1092B00437
:104CA0001092AF04109214018091AE048093AD0471
:104CB0000E94AA060E9405260895B0E0A0E0E3E65F
:104CC000F6E20C943435C091AD0497E0992E01E0E2
:104CD00010E02DE0322E34E0432E55245394809181
:104CE000AE048C1309C00E9405260E94AA06CDB707
:104CF000DEB7E1E10C945035D0E0FE01EE0FFF1F6E
:104D0000EB55FB4F80819181989ED001999EB00D0B
:104D10001124AC5FBB4F14962C911497211159C0EC
:104D200060903C04EDE3F4E030E020E0812C5D0194
:104D3000261508F04CC0E384F484D501CD90DC90B6
:104D40006FEF7FEF712C472D50E0DA01AA0FBB1FE8
:104D5000AC0DBD1D0D90BC91A02D109731F0EA1641
:104D6000FB0609F4BA017394EECF6F3F7607A9F101
:104D7000D80102C0AA0FBB1F6A95E2F78A2AB801C0
:104D8000072C02C0660F771F0A94E2F7AB0141506F
:104D900051098416150601F5329EF001339EF00D7F
:104DA0001124E35CFB4F989ED001999EB00D112415
:104DB000AC5FBB4F12962D913C91139730872783A0
:104DC0004482108211829287818715965C920E949C
:104DD0007C062196C37083CF14822F5F3F4F3D9690
:104DE000A7CFAEE1B0E0E7EFF6E20C9433354B8BA2
:104DF0005C8B6D8B7E8B8F8B988F882349F0809195
:104E0000B1019091B20101969093B2018093B101EA
:104E1000888D811110925105188A198A1A8A86E0A4
:104E2000FE017396DE011A9601900D928A95E1F7C4
:104E30008091D70482FF1EC08091DB039091DC0338
:104E4000892BC1F00E9473052091E4013091E501A6
:104E5000821B930B2091DB033091DC0382179307B5
:104E600020F08091E60182FFE7C10E94B20A811121
:104E70000E94630A8E85882389F061E0CE010A963C
:104E80000E94750F6C018F8520E5C2162CE7D206B3
:104E900089F4882329F181E0809314010A851B8518
:104EA0002C853D854E855F85688979898A890E9430
:104EB0009A25CDC031E5C3163CE7D30629F48823F3
:104EC00079F00E944E26EACF42E5C4164CE7D4069C
:104ED00039F4882329F0809114018111F2CFDBCFBE
:104EE00094E0E92E94E0F92E412CB12CA12C8824D9
:104EF0008394912CBE016F5F7F4F7A8F698F22243C
:104F00002394F7014081518166246A94762C20E035
:104F1000822F90E0FC01EE0FFF1FE40FF51F608170
:104F200071816115710531F0C616D70609F43C018F
:104F30002F5FEECF312CFFEF6F167F0609F448C0CC
:104F4000F701448130901401832D411180E0F82F46
:104F5000F1703F2EF701558086819F85992309F4D2
:104F6000F7C0332009F4F4C00091EF031091F0036F
:104F7000511013C0A401062C01C0440F0A94EAF793
:104F8000842B8683809101049091020480179107FD
:104F900020F41093020400930104C40102C0880F9E
:104FA000991F2A95E2F70197F7012681281719061C
:104FB00079F48091AF049091B004009709F44BC04C
:104FC0000E9458050817190708F045C0F701248208
:104FD0004328FFEFAF1ABF0A27E0E20EF11C38E0CA
:104FE000A316B10409F08DCF8F85882309F410C171
:104FF000442009F40DC10E9473059093B00480937E
:10500000AF0480913C04883010F591E0980F9093A4
:105010003C0499E0FE013A96DE01119601900D9252
:105020009A95E1F74DE0849FC0011124835C9B4F6A
:1050300029E0FE013196DC0101900D922A95E1F7FD
:105040002FEF3FEFFC0132872187D486C3866E960F
:10505000E2E10C944F358091AD045091AE04982F4D
:10506000F0E0E0E0851314C09093AD04EE16FF0667
:1050700009F4AECF90E0FC01EE0FFF1FEB55FB4FA4
:10508000B182A0820196837099278093AE04A0CF4D
:10509000682E712CF301EE0FFF1FEB55FB4F2081A3
:1050A0003181F7E0F29FD001F39FB00D1124AC5F86
:1050B000BB4F2D913C9111973E8F2D8F40E020E00A
:1050C00030E0E32FF0E0EE0FFF1F6D8D7E8DE60FD9
:1050D000F71F0081118101151105E1F0F701019021
:1050E000F081E02DFC8FEB8F20E005C0061717073D
:1050F00009F4432D2F5FE22FF0E0EE0FFF1F6B8DC1
:105100007C8DE60FF71F608171816115710571F764
:105110003F5FD7CF4423C9F0F701231708F0FD0103
:105120002482EE16FF0621F49093AD04342E50CF66
:10513000981305C0AE17BF0711F49F5F93709301DA
:105140002F5F3F4F822F83708DCFF0E0E0E0F7CFED
:1051500090E0511020C0B40102C0660F771F2A955D
:10516000E2F79B01215031098217930731F4442360
:1051700009F44CC0C5010E947C06C401062C01C084
:10518000880F0A94EAF7982F9095F7018681892372
:105190008683352C1DCFAC01062C02C05595479552
:1051A0000A94E2F7BA01617077279C012150310916
:1051B00082239323892B31F5672B21F1F70182811B
:1051C0009381892BE1F0E98DFA8D27E011922A95E0
:1051D000E9F70E947305282F8B839C8334E03D837D
:1051E000F70182819381782F8887998709811A81B5
:1051F0003C8144E05E816F81892F0E949A25F701EE
:105200001582BBCFF42FF1705F2EB7CF532CB5CFE3
:105210009091AD048091AE04981729F00E945D260C
:10522000411015CF3BCE0E9405261092B00410927B
:10523000AF040E94AA06F4CF82E00E94C50B15CEEF
:10524000A6E0B0E0E6E2F9E20C94433590935A020E
:1052500080935902811520E2920730F40E94DD17F5
:105260002696E2E00C945F3580EF89838A830E9462
:1052700073058160682F9C838B8349815A817C816F
:1052800081E090E00E94F126EBCF0F931F93CF9324
:10529000DF938C01EB0163E672E08C2F0E943B0EE2
:1052A000892BA1F48091F7039091F8030E94B70D28
:1052B000DD27C55ADD4F8881F801128218828330BC
:1052C000F1F048F4813059F0823081F0DF91CF91D4
:1052D0001F910F9108958430B9F08530B9F780910E
:1052E000630290916402009789F306C08091650281
:1052F00090916602009799F30E942029E7CF809150
:10530000670290916802F6CF8091690290916A02DB
:10531000009791F7209163023091640280916502B9
:105320009091660221153105F1F2009729F7C90124
:10533000E3CFA6E0B0E0EFE9F9E20C9443359093B7
:105340005A0280935902811520E2920730F40E949C
:105350008C192696E2E00C945F3580EF89838A836E
:105360000E9473058160682F9C838B8349815A81D9
:105370007C8181E091E00E94F126EBCFCF93DF9317
:10538000EC010E9499298091F7039091F8030E9403
:10539000B70DCE010E942029DF91CF9108950F9380
:1053A0001F93CF93DF938C01862F63E672E00E94F8
:1053B0003B0E892BB1F4C0916302D0916402209717
:1053C00081F0F8018281833051F4CE010E94BE2920
:1053D000CE010E94BE29CE010E94BE2902C08430A7
:1053E000D0F7DF91CF911F910F9108950F931F93E5
:1053F000CF93DF938C01EB0163E672E08C2F0E9468
:105400003B0E892B09F05CC0FE01FF27D8011296E4
:105410008C911297E55AFD4F8130B9F415969C9105
:1054200092FF02C080830AC090FFFCCF82E080839D
:1054300080916502909166020097B9F480916302B1
:10544000909164020097E1F110C08230B9F5159691
:105450008C9182FD28C080FD0BC083E08083809109
:10546000670290916802009701F10E94992928C073
:1054700084E080838091690290916A020097A9F785
:1054800080916302909164020097F9F00E94BE2916
:105490008091650290916602009739F780916302CE
:1054A00090916402E2CF85E08083809163029091C5
:1054B0006402009729F00E94BE29F0CF86E0808325
:1054C000DF91CF911F910F91089580916502909186
:1054D0006602B8CFA6E0B0E0E0E7FAE20C9441350E
:1054E0000E9473058C0180910A0290910B02801733
:1054F000910781F019821A820E947305682F4981F1
:105500005A81792F80E090E00E94F12610930B02DF
:1055100000930A022696E4E00C945D351F920F92E8
:105520000FB60F9211242F933F934F935F936F9376
:105530007F938F939F93AF93BF93CF93DF93EF931B
:10554000FF93D091E900DF708091EC00C82FC1700B
:1055500080FDC0E81092E9008091F000877F809381
:10556000F00078940E94AC121092E9008091F00053
:1055700088608093F000CD2BCF70C093E900FF913D
:10558000EF91DF91CF91BF91AF919F918F917F91DB
:105590006F915F914F913F912F910F900FBE0F90A0
:1055A0001F9018951F920F920FB60F9211242F93F0
:1055B0003F934F935F936F937F938F939F93AF939B
:1055C000BF93EF93FF938091E10082FF09C0809128
:1055D000E20082FF05C08091E1008B7F8093E100B3
:1055E0008091DA0080FF24C08091D80080FF20C025
:1055F0008091DA008E7F8093DA008091D90080FF5D
:105600009DC080E189BD82E189BD09B400FEFDCF66
:1056100081E08093FD048091D804811109C00E942B
:10562000FB030E949C048091E20084608093E2006E
:105630008091E10080FF17C08091E20080FF13C0DD
:105640008091E2008E7F8093E2008091E200806191
:105650008093E2008091D80080628093D80019BCCA
:1056600085E08093FD048091E10084FF2BC0809150
:10567000E20084FF27C080E189BD82E189BD89B550
:10568000982F917080FFFBCF8091D8008F7D809301
:10569000D8008091E1008F7E8093E1008091E2004C
:1056A0008F7E8093E2008091E20081608093E2002F
:1056B0008091FE04882309F447C084E08093FD04B0
:1056C0008091FD048091E10083FF27C08091E2007A
:1056D00083FF23C08091E100877F8093E10082E017
:1056E0008093FD041092FE048091E1008E7F8093F0
:1056F000E1008091E2008E7F8093E2008091E200E1
:1057000080618093E20042E060E080E00E946A04F1
:105710008091F00088608093F000FF91EF91BF913D
:10572000AF919F918F917F916F915F914F913F9139
:105730002F910F900FBE0F901F90189519BC1092CB
:10574000FD041092D80474CF8091E30087FD93E0AC
:105750009093FD04B5CF78941F921FB61F92112429
:105760008F939F93AF93BF938091D2049091D30472
:10577000A091D404B091D5040196A11DB11D8093D0
:10578000D2049093D304A093D404B093D504BF91D2
:10579000AF919F918F911F901FBE1F9018951F92E0
:1057A0001FB61F9211248F939F93AF93BF93809145
:1057B000D104811113C08091D2049091D304A0919F
:1057C000D404B091D5044196A11DB11D8093D2049B
:1057D0009093D304A093D404B093D504BF91AF9118
:1057E0009F918F911F901FBE1F901895CDB7DEB768
:1057F000C155D1090FB6F894DEBF0FBECDBF85B736
:10580000806885BF85B7806885BF84B7877F84BF80
:105810000FB6F894A895809160008861809360002D
:10582000109260000FBE80E890E00FB6F89480936D
:105830006100909361000FBE87E498E090938D0122
:1058400080938C010E9463070E94B4100E9428106C
:105850000E94A10F0E94FB030E949C048091E20021
:1058600084608093E20078948091FD048823A1F005
:105870001091E9001F709091EC00892F817090FDCC
:1058800080E8182B1092E9008091E80083FD0E94C7
:10589000AC121F701093E90082E084BD93E095BDC7
:1058A0009AEF97BD80936E000E94C70F811102C0CE
:1058B0000E94841681E08093370253985B9A559832
:1058C0005D9A8FE891E00197F1F700C00000209108
:1058D000370248E352E0FA018E2F841B821708F446
:1058E000C4C007E511E07DE5E72E71E0F72ED80191
:1058F0008D918D018F3F11F00E944908E016F1064D
:10590000B1F70DE511E0F80181918F018F3F11F0A2
:105910000E944908F1E00D361F07A9F78CE0EEE37D
:10592000F2E0DF01282F1D922A95E9F7EFE0F2E07F
:10593000DF011D928A95E9F790E080E00E94A8358A
:10594000863E9E4F21F40E94C70F811167C066EE0C
:105950007EEF90E080E00E94DC3560E082E090E045
:105960000E94BE3560E083E090E00E94BE35109258
:105970001B0260E074E184E090E00E94DC3560E0AE
:1059800086E090E00E94BE356FEF87E090E00E94D5
:10599000BE3540E050E0BA0188E090E00E94D0358A
:1059A00060E084E290E00E94BE3560E087E190E034
:1059B0000E94BE3560E08CE090E00E94BE3560E061
:1059C0008DE090E00E94BE3519821A821B821C82F3
:1059D0001D821E821F82188648E050E068E170E058
:1059E000CE0101960E94AE3540E050E0BA0180E25F
:1059F00090E00E94D03580E00E94220E0E94841622
:105A000040E050E0BA018FE090E00E94D03540E0E5
:105A100050E0BA0183E190E00E94D03582E090E04E
:105A20000E94A03580931D0284E090E00E94A8357A
:105A30009093D7048093D6040E94F810EFEFF6E716
:105A400021E0E150F0402040E1F700C000000E945A
:105A5000F81080913E0280FF14C06FEF7FEF90E05E
:105A600080E00E94DC350E94930D89B183FB88277A
:105A700080F94D9904C090E0892B81932DCF92E05D
:105A8000FBCF83E090E00E94A0350E94FF0B81E0F5
:105A900091E09093CE048093CD048091FD0460E466
:105AA000F62E00E112E1853009F4AAC00E94F81038
:105AB0004EE1A42E42E0B42E5EE3E52E52E0F52E38
:105AC000D701F501219131918D919D9142E0EA320A
:105AD000F40709F49FC028173907A1F33EE3832E8A
